{
  "contractName": "CDSC",
  "abi": [
    {
      "inputs": [
        {
          "internalType": "address",
          "name": "purchaser",
          "type": "address"
        },
        {
          "internalType": "address",
          "name": "supplier",
          "type": "address"
        },
        {
          "internalType": "address",
          "name": "center",
          "type": "address"
        }
      ],
      "payable": false,
      "stateMutability": "nonpayable",
      "type": "constructor"
    },
    {
      "anonymous": false,
      "inputs": [
        {
          "indexed": false,
          "internalType": "string",
          "name": "info",
          "type": "string"
        },
        {
          "indexed": false,
          "internalType": "address",
          "name": "supplier",
          "type": "address"
        },
        {
          "indexed": false,
          "internalType": "uint256",
          "name": "resourceNumber",
          "type": "uint256"
        }
      ],
      "name": "agreementAdded",
      "type": "event"
    },
    {
      "anonymous": false,
      "inputs": [
        {
          "indexed": false,
          "internalType": "string",
          "name": "info",
          "type": "string"
        },
        {
          "indexed": false,
          "internalType": "address",
          "name": "purchaser",
          "type": "address"
        },
        {
          "indexed": false,
          "internalType": "uint256",
          "name": "resourceNumber",
          "type": "uint256"
        }
      ],
      "name": "agreementChecked",
      "type": "event"
    },
    {
      "anonymous": false,
      "inputs": [
        {
          "indexed": false,
          "internalType": "string",
          "name": "info",
          "type": "string"
        },
        {
          "indexed": false,
          "internalType": "address",
          "name": "purchaser",
          "type": "address"
        },
        {
          "indexed": false,
          "internalType": "uint256",
          "name": "resourceNumber",
          "type": "uint256"
        }
      ],
      "name": "priceChecked",
      "type": "event"
    },
    {
      "anonymous": false,
      "inputs": [
        {
          "indexed": false,
          "internalType": "string",
          "name": "info",
          "type": "string"
        },
        {
          "indexed": false,
          "internalType": "address",
          "name": "supplier",
          "type": "address"
        },
        {
          "indexed": false,
          "internalType": "uint256",
          "name": "resourceNumber",
          "type": "uint256"
        }
      ],
      "name": "priceNegotiated",
      "type": "event"
    },
    {
      "anonymous": false,
      "inputs": [
        {
          "indexed": false,
          "internalType": "string",
          "name": "info",
          "type": "string"
        },
        {
          "indexed": false,
          "internalType": "address",
          "name": "purchaser",
          "type": "address"
        },
        {
          "indexed": false,
          "internalType": "uint256",
          "name": "resourceNumber",
          "type": "uint256"
        }
      ],
      "name": "purchaserSigned",
      "type": "event"
    },
    {
      "anonymous": false,
      "inputs": [
        {
          "indexed": false,
          "internalType": "string",
          "name": "info",
          "type": "string"
        },
        {
          "indexed": false,
          "internalType": "address",
          "name": "supplier",
          "type": "address"
        },
        {
          "indexed": false,
          "internalType": "uint256",
          "name": "resourceNumber",
          "type": "uint256"
        }
      ],
      "name": "supplierSigned",
      "type": "event"
    },
    {
      "constant": true,
      "inputs": [],
      "name": "_agreementContent",
      "outputs": [
        {
          "internalType": "string",
          "name": "",
          "type": "string"
        }
      ],
      "payable": false,
      "stateMutability": "view",
      "type": "function"
    },
    {
      "constant": true,
      "inputs": [],
      "name": "_center",
      "outputs": [
        {
          "internalType": "address",
          "name": "",
          "type": "address"
        }
      ],
      "payable": false,
      "stateMutability": "view",
      "type": "function"
    },
    {
      "constant": true,
      "inputs": [],
      "name": "_commitment",
      "outputs": [
        {
          "internalType": "string",
          "name": "",
          "type": "string"
        }
      ],
      "payable": false,
      "stateMutability": "view",
      "type": "function"
    },
    {
      "constant": true,
      "inputs": [],
      "name": "_price",
      "outputs": [
        {
          "internalType": "uint256",
          "name": "",
          "type": "uint256"
        }
      ],
      "payable": false,
      "stateMutability": "view",
      "type": "function"
    },
    {
      "constant": true,
      "inputs": [],
      "name": "_purchaser",
      "outputs": [
        {
          "internalType": "address",
          "name": "",
          "type": "address"
        }
      ],
      "payable": false,
      "stateMutability": "view",
      "type": "function"
    },
    {
      "constant": true,
      "inputs": [],
      "name": "_purchaserName",
      "outputs": [
        {
          "internalType": "string",
          "name": "",
          "type": "string"
        }
      ],
      "payable": false,
      "stateMutability": "view",
      "type": "function"
    },
    {
      "constant": true,
      "inputs": [],
      "name": "_purchaserPurpose",
      "outputs": [
        {
          "internalType": "string",
          "name": "",
          "type": "string"
        }
      ],
      "payable": false,
      "stateMutability": "view",
      "type": "function"
    },
    {
      "constant": true,
      "inputs": [],
      "name": "_resourceName",
      "outputs": [
        {
          "internalType": "string",
          "name": "",
          "type": "string"
        }
      ],
      "payable": false,
      "stateMutability": "view",
      "type": "function"
    },
    {
      "constant": true,
      "inputs": [],
      "name": "_resourceNumber",
      "outputs": [
        {
          "internalType": "uint256",
          "name": "",
          "type": "uint256"
        }
      ],
      "payable": false,
      "stateMutability": "view",
      "type": "function"
    },
    {
      "constant": true,
      "inputs": [],
      "name": "_signedDataOfPurchaser",
      "outputs": [
        {
          "internalType": "uint256",
          "name": "",
          "type": "uint256"
        }
      ],
      "payable": false,
      "stateMutability": "view",
      "type": "function"
    },
    {
      "constant": true,
      "inputs": [],
      "name": "_signedDataOfSupplier",
      "outputs": [
        {
          "internalType": "uint256",
          "name": "",
          "type": "uint256"
        }
      ],
      "payable": false,
      "stateMutability": "view",
      "type": "function"
    },
    {
      "constant": true,
      "inputs": [],
      "name": "_supplier",
      "outputs": [
        {
          "internalType": "address",
          "name": "",
          "type": "address"
        }
      ],
      "payable": false,
      "stateMutability": "view",
      "type": "function"
    },
    {
      "constant": false,
      "inputs": [
        {
          "internalType": "uint256",
          "name": "price",
          "type": "uint256"
        }
      ],
      "name": "negotiationPrice",
      "outputs": [
        {
          "internalType": "uint256",
          "name": "",
          "type": "uint256"
        }
      ],
      "payable": false,
      "stateMutability": "nonpayable",
      "type": "function"
    },
    {
      "constant": false,
      "inputs": [],
      "name": "priceChecking",
      "outputs": [
        {
          "internalType": "uint256",
          "name": "",
          "type": "uint256"
        }
      ],
      "payable": false,
      "stateMutability": "nonpayable",
      "type": "function"
    },
    {
      "constant": false,
      "inputs": [
        {
          "internalType": "string",
          "name": "agreementContent",
          "type": "string"
        }
      ],
      "name": "addAgreement",
      "outputs": [
        {
          "internalType": "string",
          "name": "",
          "type": "string"
        }
      ],
      "payable": false,
      "stateMutability": "nonpayable",
      "type": "function"
    },
    {
      "constant": false,
      "inputs": [],
      "name": "checkAgreement",
      "outputs": [
        {
          "internalType": "string",
          "name": "",
          "type": "string"
        }
      ],
      "payable": false,
      "stateMutability": "nonpayable",
      "type": "function"
    },
    {
      "constant": false,
      "inputs": [
        {
          "internalType": "uint256",
          "name": "signedBySupplier",
          "type": "uint256"
        }
      ],
      "name": "supplierSignAgreement",
      "outputs": [
        {
          "internalType": "uint256",
          "name": "",
          "type": "uint256"
        }
      ],
      "payable": false,
      "stateMutability": "nonpayable",
      "type": "function"
    },
    {
      "constant": false,
      "inputs": [
        {
          "internalType": "uint256",
          "name": "signedByPurchaser",
          "type": "uint256"
        }
      ],
      "name": "purchaserSignAgreement",
      "outputs": [
        {
          "internalType": "uint256",
          "name": "",
          "type": "uint256"
        }
      ],
      "payable": false,
      "stateMutability": "nonpayable",
      "type": "function"
    }
  ],
  "bytecode": "0x60806040523480156200001157600080fd5b5060405162001ab138038062001ab1833981810160405260608110156200003757600080fd5b81019080805190602001909291908051906020019092919080519060200190929190505050826000806101000a81548173ffffffffffffffffffffffffffffffffffffffff021916908373ffffffffffffffffffffffffffffffffffffffff16021790555081600160006101000a81548173ffffffffffffffffffffffffffffffffffffffff021916908373ffffffffffffffffffffffffffffffffffffffff16021790555080600260006101000a81548173ffffffffffffffffffffffffffffffffffffffff021916908373ffffffffffffffffffffffffffffffffffffffff1602179055506040518060400160405280600781526020017f4269674461746100000000000000000000000000000000000000000000000000815250600390805190602001906200016b9291906200024d565b50621ed3776004819055506040518060400160405280600381526020017f534855000000000000000000000000000000000000000000000000000000000081525060059080519060200190620001c39291906200024d565b506040518060400160405280600881526020017f526573656172636800000000000000000000000000000000000000000000000081525060069080519060200190620002119291906200024d565b506040518060c00160405280609c815260200162001a15609c913960079080519060200190620002439291906200024d565b50505050620002fc565b828054600181600116156101000203166002900490600052602060002090601f016020900481019282601f106200029057805160ff1916838001178555620002c1565b82800160010185558215620002c1579182015b82811115620002c0578251825591602001919060010190620002a3565b5b509050620002d09190620002d4565b5090565b620002f991905b80821115620002f5576000816000905550600101620002db565b5090565b90565b611709806200030c6000396000f3fe608060405234801561001057600080fd5b50600436106101165760003560e01c80636d111ad0116100a2578063c3c3218e11610071578063c3c3218e14610658578063c5ea187114610676578063d0e54d52146106b8578063e1d509cc146106fa578063f701d3f41461077d57610116565b80636d111ad01461048557806375a60cef1461050857806398e0600b14610552578063a678fb9d146105d557610116565b8063235b6ea1116100e9578063235b6ea11461024857806332ba18d5146102665780633d65a1aa146102845780634c337b9b146103075780635cc441791461043b57610116565b80630102a47b1461011b57806306bd66601461019e5780631849c89e146101bc57806318c5a351146101fe575b600080fd5b61012361079b565b6040518080602001828103825283818151815260200191508051906020019080838360005b83811015610163578082015181840152602081019050610148565b50505050905090810190601f1680156101905780820380516001836020036101000a031916815260200191505b509250505060405180910390f35b6101a661098c565b6040518082815260200191505060405180910390f35b6101e8600480360360208110156101d257600080fd5b8101908080359060200190929190505050610992565b6040518082815260200191505060405180910390f35b610206610af6565b604051808273ffffffffffffffffffffffffffffffffffffffff1673ffffffffffffffffffffffffffffffffffffffff16815260200191505060405180910390f35b610250610b1b565b6040518082815260200191505060405180910390f35b61026e610b21565b6040518082815260200191505060405180910390f35b61028c610c7a565b6040518080602001828103825283818151815260200191508051906020019080838360005b838110156102cc5780820151818401526020810190506102b1565b50505050905090810190601f1680156102f95780820380516001836020036101000a031916815260200191505b509250505060405180910390f35b6103c06004803603602081101561031d57600080fd5b810190808035906020019064010000000081111561033a57600080fd5b82018360208201111561034c57600080fd5b8035906020019184600183028401116401000000008311171561036e57600080fd5b91908080601f016020809104026020016040519081016040528093929190818152602001838380828437600081840152601f19601f820116905080830192505050505050509192919290505050610d18565b6040518080602001828103825283818151815260200191508051906020019080838360005b838110156104005780820151818401526020810190506103e5565b50505050905090810190601f16801561042d5780820380516001836020036101000a031916815260200191505b509250505060405180910390f35b610443610f24565b604051808273ffffffffffffffffffffffffffffffffffffffff1673ffffffffffffffffffffffffffffffffffffffff16815260200191505060405180910390f35b61048d610f4a565b6040518080602001828103825283818151815260200191508051906020019080838360005b838110156104cd5780820151818401526020810190506104b2565b50505050905090810190601f1680156104fa5780820380516001836020036101000a031916815260200191505b509250505060405180910390f35b610510610fe8565b604051808273ffffffffffffffffffffffffffffffffffffffff1673ffffffffffffffffffffffffffffffffffffffff16815260200191505060405180910390f35b61055a61100e565b6040518080602001828103825283818151815260200191508051906020019080838360005b8381101561059a57808201518184015260208101905061057f565b50505050905090810190601f1680156105c75780820380516001836020036101000a031916815260200191505b509250505060405180910390f35b6105dd6110ac565b6040518080602001828103825283818151815260200191508051906020019080838360005b8381101561061d578082015181840152602081019050610602565b50505050905090810190601f16801561064a5780820380516001836020036101000a031916815260200191505b509250505060405180910390f35b61066061114a565b6040518082815260200191505060405180910390f35b6106a26004803603602081101561068c57600080fd5b8101908080359060200190929190505050611150565b6040518082815260200191505060405180910390f35b6106e4600480360360208110156106ce57600080fd5b81019080803590602001909291905050506112b2565b6040518082815260200191505060405180910390f35b610702611416565b6040518080602001828103825283818151815260200191508051906020019080838360005b83811015610742578082015181840152602081019050610727565b50505050905090810190601f16801561076f5780820380516001836020036101000a031916815260200191505b509250505060405180910390f35b6107856114b4565b6040518082815260200191505060405180910390f35b60606000809054906101000a900473ffffffffffffffffffffffffffffffffffffffff1673ffffffffffffffffffffffffffffffffffffffff163373ffffffffffffffffffffffffffffffffffffffff1614610842576040517f08c379a000000000000000000000000000000000000000000000000000000000815260040180806020018281038252602b8152602001806116aa602b913960400191505060405180910390fd5b7fed1e8999cb6dbe785b3a4ad1bee71f6cb9db6f46f4a1a1ed1f5d194848c81d976000809054906101000a900473ffffffffffffffffffffffffffffffffffffffff1660045460405180806020018473ffffffffffffffffffffffffffffffffffffffff1673ffffffffffffffffffffffffffffffffffffffff1681526020018381526020018281038252603981526020018061164a60399139604001935050505060405180910390a160098054600181600116156101000203166002900480601f0160208091040260200160405190810160405280929190818152602001828054600181600116156101000203166002900480156109825780601f1061095757610100808354040283529160200191610982565b820191906000526020600020905b81548152906001019060200180831161096557829003601f168201915b5050505050905090565b60045481565b6000600160009054906101000a900473ffffffffffffffffffffffffffffffffffffffff1673ffffffffffffffffffffffffffffffffffffffff163373ffffffffffffffffffffffffffffffffffffffff1614610a3a576040517f08c379a000000000000000000000000000000000000000000000000000000000815260040180806020018281038252602a8152602001806115b6602a913960400191505060405180910390fd5b81600a819055507f82553648197fc5dd708cbbc42905ee7d1ff8230acc9308eeed9687d0c4789a79600160009054906101000a900473ffffffffffffffffffffffffffffffffffffffff1660045460405180806020018473ffffffffffffffffffffffffffffffffffffffff1673ffffffffffffffffffffffffffffffffffffffff1681526020018381526020018281038252602b8152602001806115e0602b9139604001935050505060405180910390a1600a549050919050565b6000809054906101000a900473ffffffffffffffffffffffffffffffffffffffff1681565b60085481565b60008060009054906101000a900473ffffffffffffffffffffffffffffffffffffffff1673ffffffffffffffffffffffffffffffffffffffff163373ffffffffffffffffffffffffffffffffffffffff1614610bc8576040517f08c379a000000000000000000000000000000000000000000000000000000000815260040180806020018281038252602b8152602001806116aa602b913960400191505060405180910390fd5b7f170ac59c84cc38cc416e2ce442cb87d0e2bc21418c295b09d86f63587db7722c6000809054906101000a900473ffffffffffffffffffffffffffffffffffffffff1660045460405180806020018473ffffffffffffffffffffffffffffffffffffffff1673ffffffffffffffffffffffffffffffffffffffff1681526020018381526020018281038252602781526020018061168360279139604001935050505060405180910390a1600854905090565b60058054600181600116156101000203166002900480601f016020809104026020016040519081016040528092919081815260200182805460018160011615610100020316600290048015610d105780601f10610ce557610100808354040283529160200191610d10565b820191906000526020600020905b815481529060010190602001808311610cf357829003601f168201915b505050505081565b6060600160009054906101000a900473ffffffffffffffffffffffffffffffffffffffff1673ffffffffffffffffffffffffffffffffffffffff163373ffffffffffffffffffffffffffffffffffffffff1614610dc0576040517f08c379a000000000000000000000000000000000000000000000000000000000815260040180806020018281038252602a8152602001806115b6602a913960400191505060405180910390fd5b8160099080519060200190610dd69291906114ba565b507f3b4b50668b5d194a4271816d42a474f7f251133b4bd6ec606304d3feef5e170e600160009054906101000a900473ffffffffffffffffffffffffffffffffffffffff1660045460405180806020018473ffffffffffffffffffffffffffffffffffffffff1673ffffffffffffffffffffffffffffffffffffffff1681526020018381526020018281038252603f81526020018061160b603f9139604001935050505060405180910390a160098054600181600116156101000203166002900480601f016020809104026020016040519081016040528092919081815260200182805460018160011615610100020316600290048015610f185780601f10610eed57610100808354040283529160200191610f18565b820191906000526020600020905b815481529060010190602001808311610efb57829003601f168201915b50505050509050919050565b600160009054906101000a900473ffffffffffffffffffffffffffffffffffffffff1681565b60078054600181600116156101000203166002900480601f016020809104026020016040519081016040528092919081815260200182805460018160011615610100020316600290048015610fe05780601f10610fb557610100808354040283529160200191610fe0565b820191906000526020600020905b815481529060010190602001808311610fc357829003601f168201915b505050505081565b600260009054906101000a900473ffffffffffffffffffffffffffffffffffffffff1681565b60098054600181600116156101000203166002900480601f0160208091040260200160405190810160405280929190818152602001828054600181600116156101000203166002900480156110a45780601f10611079576101008083540402835291602001916110a4565b820191906000526020600020905b81548152906001019060200180831161108757829003601f168201915b505050505081565b60068054600181600116156101000203166002900480601f0160208091040260200160405190810160405280929190818152602001828054600181600116156101000203166002900480156111425780601f1061111757610100808354040283529160200191611142565b820191906000526020600020905b81548152906001019060200180831161112557829003601f168201915b505050505081565b600a5481565b60008060009054906101000a900473ffffffffffffffffffffffffffffffffffffffff1673ffffffffffffffffffffffffffffffffffffffff163373ffffffffffffffffffffffffffffffffffffffff16146111f7576040517f08c379a000000000000000000000000000000000000000000000000000000000815260040180806020018281038252602b8152602001806116aa602b913960400191505060405180910390fd5b81600b819055507f6ecbb38c0c2bf77289eda93b54a820095af4f45e63e06969bc677900eab205cf6000809054906101000a900473ffffffffffffffffffffffffffffffffffffffff1660045460405180806020018473ffffffffffffffffffffffffffffffffffffffff1673ffffffffffffffffffffffffffffffffffffffff1681526020018381526020018281038252602c815260200180611560602c9139604001935050505060405180910390a1600b549050919050565b6000600160009054906101000a900473ffffffffffffffffffffffffffffffffffffffff1673ffffffffffffffffffffffffffffffffffffffff163373ffffffffffffffffffffffffffffffffffffffff161461135a576040517f08c379a000000000000000000000000000000000000000000000000000000000815260040180806020018281038252602a8152602001806115b6602a913960400191505060405180910390fd5b816008819055507f9eefe09f1f1bef53552cc6c8856c935c8848af91f54f791c59e3784ba8b39591600160009054906101000a900473ffffffffffffffffffffffffffffffffffffffff1660045460405180806020018473ffffffffffffffffffffffffffffffffffffffff1673ffffffffffffffffffffffffffffffffffffffff1681526020018381526020018281038252602a81526020018061158c602a9139604001935050505060405180910390a16008549050919050565b60038054600181600116156101000203166002900480601f0160208091040260200160405190810160405280929190818152602001828054600181600116156101000203166002900480156114ac5780601f10611481576101008083540402835291602001916114ac565b820191906000526020600020905b81548152906001019060200180831161148f57829003601f168201915b505050505081565b600b5481565b828054600181600116156101000203166002900490600052602060002090601f016020900481019282601f106114fb57805160ff1916838001178555611529565b82800160010185558215611529579182015b8281111561152857825182559160200191906001019061150d565b5b509050611536919061153a565b5090565b61155c91905b80821115611558576000816000905550600101611540565b5090565b9056fe54686520646174612070757263686173657220686173207369676e6564207468652061677265656d656e742e546865207472616e73616374696f6e20707269636520686173206265656e206e65676f7469617465642e4f6e6c792074686520737570706c6965722063616e20706572666f726d207468697320616374696f6e2e546865206461746120737570706c69657220686173207369676e6564207468652061677265656d656e742e5468652064617461207265736f75726365207472616e73616374696f6e2061677265656d656e7420776173206164646564207375636365737366756c6c792e5468652064617461207265736f75726365207472616e73616374696f6e2061677265656d656e7420686173206265656e20636865636b65642e546865207472616e73616374696f6e20707269636520686173206265656e20636865636b65642e4f6e6c7920746865207075726368617365722063616e20706572666f726d207468697320616374696f6e2ea265627a7a72315820dd19fe3edaf70b33c2eb81292e15f3010b322a5bbf0ad09698e7489f8f4284df64736f6c634300051000324166746572206e65676f74696174696f6e2c207468652070757263686173657220616e642074686520737570706c696572207369676e2074686520666f6c6c6f77696e672064617461207265736f757263652070757263686173652061677265656d656e74206261736564206f6e20746865207072696e6369706c65206f6620657175616c69747920616e64206d757475616c2062656e656669742e",
  "source": "pragma solidity ^0.5.16;\r\n\r\ncontract CDSC {\r\n  address public _purchaser;\r\n  address public _supplier;\r\n  address public _center;\r\n  string public _resourceName;\r\n  uint public _resourceNumber;\r\n  string public _purchaserName;\r\n  string public _purchaserPurpose;\r\n  string public _commitment;\r\n  uint public _price;\r\n  string public _agreementContent;\r\n  uint256 public _signedDataOfSupplier;\r\n  uint256 public _signedDataOfPurchaser;\r\n\r\n  modifier onlySupplier() {\r\n    require(msg.sender == _supplier, \"Only the supplier can perform this action.\");\r\n    _;\r\n  }\r\n\r\n  modifier onlyPurchaser() {\r\n    require(msg.sender == _purchaser, \"Only the purchaser can perform this action.\");\r\n    _;\r\n  }\r\n\r\n  // Novo construtor para permitir a configuração dinâmica dos endereços\r\n  constructor(\r\n    address purchaser,\r\n    address supplier,\r\n    address center\r\n  ) public {\r\n    _purchaser = purchaser;\r\n    _supplier = supplier;\r\n    _center = center;\r\n    _resourceName = \"BigData\";\r\n    _resourceNumber = 2020215;\r\n    _purchaserName = \"SHU\";\r\n    _purchaserPurpose = \"Research\";\r\n    _commitment = \"After negotiation, the purchaser and the supplier sign the following data resource purchase agreement based on the principle of equality and mutual benefit.\";\r\n  }\r\n\r\n  event priceNegotiated(string info, address supplier, uint resourceNumber);\r\n  event priceChecked(string info, address purchaser, uint resourceNumber);\r\n  event agreementAdded(string info, address supplier, uint resourceNumber);\r\n  event agreementChecked(string info, address purchaser, uint resourceNumber);\r\n  event supplierSigned(string info, address supplier, uint resourceNumber);\r\n  event purchaserSigned(string info, address purchaser, uint resourceNumber);\r\n\r\n  function negotiationPrice(uint price) onlySupplier public returns (uint) {\r\n    _price = price;\r\n    emit priceNegotiated(\"The transaction price has been negotiated.\", _supplier, _resourceNumber);\r\n    return _price;\r\n  }\r\n\r\n  function priceChecking() onlyPurchaser public returns (uint) {\r\n    emit priceChecked(\"The transaction price has been checked.\", _purchaser, _resourceNumber);\r\n    return _price;\r\n  }\r\n\r\n  function addAgreement(string memory agreementContent) onlySupplier public returns (string memory) {\r\n    _agreementContent = agreementContent;\r\n    emit agreementAdded(\"The data resource transaction agreement was added successfully.\", _supplier, _resourceNumber);\r\n    return _agreementContent;\r\n  }\r\n\r\n  function checkAgreement() onlyPurchaser public returns (string memory) {\r\n    emit agreementChecked(\"The data resource transaction agreement has been checked.\", _purchaser, _resourceNumber);\r\n    return _agreementContent;\r\n  }\r\n\r\n  function supplierSignAgreement(uint256 signedBySupplier) onlySupplier public returns (uint256) {\r\n    _signedDataOfSupplier = signedBySupplier;\r\n    emit supplierSigned(\"The data supplier has signed the agreement.\", _supplier, _resourceNumber);\r\n    return _signedDataOfSupplier;\r\n  }\r\n\r\n  function purchaserSignAgreement(uint256 signedByPurchaser) onlyPurchaser public returns (uint256) {\r\n    _signedDataOfPurchaser = signedByPurchaser;\r\n    emit purchaserSigned(\"The data purchaser has signed the agreement.\", _purchaser, _resourceNumber);\r\n    return _signedDataOfPurchaser;\r\n  }\r\n}\r\n",
  "sourcePath": "/workspaces/DTC-SC/contracts/CDSC.sol",
  "compiler": {
    "name": "solc",
    "version": "0.5.16+commit.9c3226ce.Emscripten.clang"
  },
  "schemaVersion": "3.4.16",
  "updatedAt": "2024-11-16T15:23:28.117Z",
  "networkType": "ethereum",
  "devdoc": {
    "methods": {}
  },
  "userdoc": {
    "methods": {}
  }
}