{
  "contractName": "DTSC",
  "abi": [
    {
      "inputs": [
        {
          "internalType": "address payable",
          "name": "_dtc",
          "type": "address"
        },
        {
          "internalType": "address payable",
          "name": "_ds",
          "type": "address"
        },
        {
          "internalType": "address payable",
          "name": "_dp",
          "type": "address"
        }
      ],
      "payable": false,
      "stateMutability": "nonpayable",
      "type": "constructor"
    },
    {
      "anonymous": false,
      "inputs": [
        {
          "indexed": false,
          "internalType": "address",
          "name": "DP",
          "type": "address"
        },
        {
          "indexed": false,
          "internalType": "string",
          "name": "info",
          "type": "string"
        }
      ],
      "name": "DPDepositedandPaid",
      "type": "event"
    },
    {
      "anonymous": false,
      "inputs": [
        {
          "indexed": false,
          "internalType": "address",
          "name": "DP",
          "type": "address"
        },
        {
          "indexed": false,
          "internalType": "string",
          "name": "info",
          "type": "string"
        }
      ],
      "name": "DPRight",
      "type": "event"
    },
    {
      "anonymous": false,
      "inputs": [
        {
          "indexed": false,
          "internalType": "address",
          "name": "DP",
          "type": "address"
        },
        {
          "indexed": false,
          "internalType": "string",
          "name": "info",
          "type": "string"
        }
      ],
      "name": "DPWrong",
      "type": "event"
    },
    {
      "anonymous": false,
      "inputs": [
        {
          "indexed": false,
          "internalType": "string",
          "name": "info",
          "type": "string"
        },
        {
          "indexed": false,
          "internalType": "address",
          "name": "DS",
          "type": "address"
        }
      ],
      "name": "DSDeposited",
      "type": "event"
    },
    {
      "anonymous": false,
      "inputs": [
        {
          "indexed": false,
          "internalType": "address",
          "name": "DP",
          "type": "address"
        },
        {
          "indexed": false,
          "internalType": "string",
          "name": "info",
          "type": "string"
        }
      ],
      "name": "DTCArbitrationThroughDTCSC",
      "type": "event"
    },
    {
      "anonymous": false,
      "inputs": [
        {
          "indexed": false,
          "internalType": "string",
          "name": "info",
          "type": "string"
        },
        {
          "indexed": false,
          "internalType": "address",
          "name": "DP",
          "type": "address"
        }
      ],
      "name": "RefundBasedOnDPRequest",
      "type": "event"
    },
    {
      "anonymous": false,
      "inputs": [
        {
          "indexed": false,
          "internalType": "address",
          "name": "DP",
          "type": "address"
        },
        {
          "indexed": false,
          "internalType": "string",
          "name": "info",
          "type": "string"
        }
      ],
      "name": "paymentSettled",
      "type": "event"
    },
    {
      "anonymous": false,
      "inputs": [
        {
          "indexed": false,
          "internalType": "address",
          "name": "DP",
          "type": "address"
        }
      ],
      "name": "refundDone",
      "type": "event"
    },
    {
      "anonymous": false,
      "inputs": [
        {
          "indexed": false,
          "internalType": "address",
          "name": "DP",
          "type": "address"
        }
      ],
      "name": "successfulTrading",
      "type": "event"
    },
    {
      "anonymous": false,
      "inputs": [
        {
          "indexed": false,
          "internalType": "address",
          "name": "DP",
          "type": "address"
        }
      ],
      "name": "unsuccessfulTrading",
      "type": "event"
    },
    {
      "constant": true,
      "inputs": [
        {
          "internalType": "address",
          "name": "",
          "type": "address"
        }
      ],
      "name": "DPs",
      "outputs": [
        {
          "internalType": "enum DTSC.DPStatus",
          "name": "status",
          "type": "uint8"
        }
      ],
      "payable": false,
      "stateMutability": "view",
      "type": "function"
    },
    {
      "constant": true,
      "inputs": [],
      "name": "dataprice",
      "outputs": [
        {
          "internalType": "uint256",
          "name": "",
          "type": "uint256"
        }
      ],
      "payable": false,
      "stateMutability": "view",
      "type": "function"
    },
    {
      "constant": true,
      "inputs": [],
      "name": "deposit",
      "outputs": [
        {
          "internalType": "uint256",
          "name": "",
          "type": "uint256"
        }
      ],
      "payable": false,
      "stateMutability": "view",
      "type": "function"
    },
    {
      "constant": true,
      "inputs": [],
      "name": "dp",
      "outputs": [
        {
          "internalType": "address payable",
          "name": "",
          "type": "address"
        }
      ],
      "payable": false,
      "stateMutability": "view",
      "type": "function"
    },
    {
      "constant": true,
      "inputs": [],
      "name": "ds",
      "outputs": [
        {
          "internalType": "address payable",
          "name": "",
          "type": "address"
        }
      ],
      "payable": false,
      "stateMutability": "view",
      "type": "function"
    },
    {
      "constant": true,
      "inputs": [],
      "name": "dtc",
      "outputs": [
        {
          "internalType": "address payable",
          "name": "",
          "type": "address"
        }
      ],
      "payable": false,
      "stateMutability": "view",
      "type": "function"
    },
    {
      "constant": true,
      "inputs": [],
      "name": "numberOfDPs",
      "outputs": [
        {
          "internalType": "uint256",
          "name": "",
          "type": "uint256"
        }
      ],
      "payable": false,
      "stateMutability": "view",
      "type": "function"
    },
    {
      "constant": true,
      "inputs": [],
      "name": "numberOfSuccessfulSales",
      "outputs": [
        {
          "internalType": "uint256",
          "name": "",
          "type": "uint256"
        }
      ],
      "payable": false,
      "stateMutability": "view",
      "type": "function"
    },
    {
      "constant": true,
      "inputs": [
        {
          "internalType": "address",
          "name": "",
          "type": "address"
        }
      ],
      "name": "ratings",
      "outputs": [
        {
          "internalType": "uint256",
          "name": "",
          "type": "uint256"
        }
      ],
      "payable": false,
      "stateMutability": "view",
      "type": "function"
    },
    {
      "constant": true,
      "inputs": [],
      "name": "status",
      "outputs": [
        {
          "internalType": "enum DTSC.DTSCStatus",
          "name": "",
          "type": "uint8"
        }
      ],
      "payable": false,
      "stateMutability": "view",
      "type": "function"
    },
    {
      "constant": true,
      "inputs": [
        {
          "internalType": "uint256",
          "name": "",
          "type": "uint256"
        }
      ],
      "name": "transactions",
      "outputs": [
        {
          "internalType": "address",
          "name": "purchaser",
          "type": "address"
        },
        {
          "internalType": "address",
          "name": "supplier",
          "type": "address"
        },
        {
          "internalType": "uint256",
          "name": "value",
          "type": "uint256"
        },
        {
          "internalType": "string",
          "name": "status",
          "type": "string"
        }
      ],
      "payable": false,
      "stateMutability": "view",
      "type": "function"
    },
    {
      "constant": false,
      "inputs": [
        {
          "internalType": "address",
          "name": "user",
          "type": "address"
        },
        {
          "internalType": "uint256",
          "name": "score",
          "type": "uint256"
        }
      ],
      "name": "rateUser",
      "outputs": [],
      "payable": false,
      "stateMutability": "nonpayable",
      "type": "function"
    },
    {
      "constant": false,
      "inputs": [],
      "name": "RequestSellData",
      "outputs": [],
      "payable": true,
      "stateMutability": "payable",
      "type": "function"
    },
    {
      "constant": false,
      "inputs": [],
      "name": "RequestGetData",
      "outputs": [],
      "payable": true,
      "stateMutability": "payable",
      "type": "function"
    },
    {
      "constant": false,
      "inputs": [],
      "name": "refund",
      "outputs": [],
      "payable": false,
      "stateMutability": "nonpayable",
      "type": "function"
    },
    {
      "constant": false,
      "inputs": [
        {
          "internalType": "bool",
          "name": "result",
          "type": "bool"
        }
      ],
      "name": "ConfirmResult",
      "outputs": [],
      "payable": false,
      "stateMutability": "nonpayable",
      "type": "function"
    },
    {
      "constant": false,
      "inputs": [
        {
          "internalType": "address payable",
          "name": "DP",
          "type": "address"
        },
        {
          "internalType": "bool",
          "name": "result",
          "type": "bool"
        }
      ],
      "name": "SettleDisputeAndPayment",
      "outputs": [],
      "payable": false,
      "stateMutability": "nonpayable",
      "type": "function"
    },
    {
      "constant": true,
      "inputs": [
        {
          "internalType": "uint256",
          "name": "index",
          "type": "uint256"
        }
      ],
      "name": "getTransaction",
      "outputs": [
        {
          "internalType": "address",
          "name": "",
          "type": "address"
        },
        {
          "internalType": "address",
          "name": "",
          "type": "address"
        },
        {
          "internalType": "uint256",
          "name": "",
          "type": "uint256"
        },
        {
          "internalType": "string",
          "name": "",
          "type": "string"
        }
      ],
      "payable": false,
      "stateMutability": "view",
      "type": "function"
    }
  ],
  "bytecode": "0x608060405234801561001057600080fd5b506040516125f73803806125f78339818101604052606081101561003357600080fd5b81019080805190602001909291908051906020019092919080519060200190929190505050826000806101000a81548173ffffffffffffffffffffffffffffffffffffffff021916908373ffffffffffffffffffffffffffffffffffffffff16021790555081600160006101000a81548173ffffffffffffffffffffffffffffffffffffffff021916908373ffffffffffffffffffffffffffffffffffffffff16021790555080600260006101000a81548173ffffffffffffffffffffffffffffffffffffffff021916908373ffffffffffffffffffffffffffffffffffffffff1602179055506000600260146101000a81548160ff0219169083600181111561013957fe5b02179055506729a2241af62c0000600581905550671bc16d674ec80000600681905550600060038190555060006004819055505050506124798061017e6000396000f3fe6080604052600436106101095760003560e01c80638a238de5116100955780639e01dfbb116100645780639e01dfbb146105a7578063b95c7a061461060c578063d0e30db014610669578063da43b95a14610694578063edddf7171461070757610109565b80638a238de5146103d957806393eb049d146104045780639934105e1461045b5780639ace38c21461048657610109565b806333ea3dc8116100dc57806333ea3dc8146102325780633d4effc4146103535780634f480abb146103ae578063590e1ae3146103b85780637638f680146103cf57610109565b80630119cef51461010e578063200d2ed21461014b578063306f0b761461018457806330dce62b146101db575b600080fd5b34801561011a57600080fd5b506101496004803603602081101561013157600080fd5b81019080803515159060200190929190505050610732565b005b34801561015757600080fd5b50610160610bc7565b6040518082600181111561017057fe5b60ff16815260200191505060405180910390f35b34801561019057600080fd5b50610199610bda565b604051808273ffffffffffffffffffffffffffffffffffffffff1673ffffffffffffffffffffffffffffffffffffffff16815260200191505060405180910390f35b3480156101e757600080fd5b506101f0610bff565b604051808273ffffffffffffffffffffffffffffffffffffffff1673ffffffffffffffffffffffffffffffffffffffff16815260200191505060405180910390f35b34801561023e57600080fd5b5061026b6004803603602081101561025557600080fd5b8101908080359060200190929190505050610c25565b604051808573ffffffffffffffffffffffffffffffffffffffff1673ffffffffffffffffffffffffffffffffffffffff1681526020018473ffffffffffffffffffffffffffffffffffffffff1673ffffffffffffffffffffffffffffffffffffffff16815260200183815260200180602001828103825283818151815260200191508051906020019080838360005b838110156103155780820151818401526020810190506102fa565b50505050905090810190601f1680156103425780820380516001836020036101000a031916815260200191505b509550505050505060405180910390f35b34801561035f57600080fd5b506103ac6004803603604081101561037657600080fd5b81019080803573ffffffffffffffffffffffffffffffffffffffff16906020019092919080359060200190929190505050610ddb565b005b6103b6610ee5565b005b3480156103c457600080fd5b506103cd6110df565b005b6103d7611435565b005b3480156103e557600080fd5b506103ee611705565b6040518082815260200191505060405180910390f35b34801561041057600080fd5b5061041961170b565b604051808273ffffffffffffffffffffffffffffffffffffffff1673ffffffffffffffffffffffffffffffffffffffff16815260200191505060405180910390f35b34801561046757600080fd5b50610470611731565b6040518082815260200191505060405180910390f35b34801561049257600080fd5b506104bf600480360360208110156104a957600080fd5b8101908080359060200190929190505050611737565b604051808573ffffffffffffffffffffffffffffffffffffffff1673ffffffffffffffffffffffffffffffffffffffff1681526020018473ffffffffffffffffffffffffffffffffffffffff1673ffffffffffffffffffffffffffffffffffffffff16815260200183815260200180602001828103825283818151815260200191508051906020019080838360005b8381101561056957808201518184015260208101905061054e565b50505050905090810190601f1680156105965780820380516001836020036101000a031916815260200191505b509550505050505060405180910390f35b3480156105b357600080fd5b506105f6600480360360208110156105ca57600080fd5b81019080803573ffffffffffffffffffffffffffffffffffffffff16906020019092919050505061184c565b6040518082815260200191505060405180910390f35b34801561061857600080fd5b506106676004803603604081101561062f57600080fd5b81019080803573ffffffffffffffffffffffffffffffffffffffff169060200190929190803515159060200190929190505050611864565b005b34801561067557600080fd5b5061067e611de9565b6040518082815260200191505060405180910390f35b3480156106a057600080fd5b506106e3600480360360208110156106b757600080fd5b81019080803573ffffffffffffffffffffffffffffffffffffffff169060200190929190505050611def565b604051808260058111156106f357fe5b60ff16815260200191505060405180910390f35b34801561071357600080fd5b5061071c611e1a565b6040518082815260200191505060405180910390f35b600260009054906101000a900473ffffffffffffffffffffffffffffffffffffffff1673ffffffffffffffffffffffffffffffffffffffff163373ffffffffffffffffffffffffffffffffffffffff16146107f5576040517f08c379a00000000000000000000000000000000000000000000000000000000081526004018080602001828103825260208152602001807f4f6e6c792044502063616e20706572666f726d207468697320616374696f6e2e81525060200191505060405180910390fd5b6000600581111561080257fe5b600760003373ffffffffffffffffffffffffffffffffffffffff1673ffffffffffffffffffffffffffffffffffffffff16815260200190815260200160002060000160009054906101000a900460ff16600581111561085d57fe5b146108d0576040517f08c379a000000000000000000000000000000000000000000000000000000000815260040180806020018281038252600f8152602001807f496e76616c6964207374617475732e000000000000000000000000000000000081525060200191505060405180910390fd5b8015610a14577fdbc5ae7d32e2e6861e4a606b095bc49bd956351c7f4db1ca448bb5f4f11447e633604051808273ffffffffffffffffffffffffffffffffffffffff1673ffffffffffffffffffffffffffffffffffffffff16815260200191505060405180910390a16001600760003373ffffffffffffffffffffffffffffffffffffffff1673ffffffffffffffffffffffffffffffffffffffff16815260200190815260200160002060000160006101000a81548160ff0219169083600581111561099857fe5b02179055506109a633611e20565b610a0f33600160009054906101000a900473ffffffffffffffffffffffffffffffffffffffff16600554600654016040518060400160405280600a81526020017f5375636365737366756c000000000000000000000000000000000000000000008152506121a4565b610bc4565b7f20699f79cfa85a508683c7dd12178dd1f4b2ea8ca093d37bf508b37b7c994df333604051808273ffffffffffffffffffffffffffffffffffffffff1673ffffffffffffffffffffffffffffffffffffffff16815260200191505060405180910390a16002600760003373ffffffffffffffffffffffffffffffffffffffff1673ffffffffffffffffffffffffffffffffffffffff16815260200190815260200160002060000160006101000a81548160ff02191690836005811115610ad657fe5b02179055507f19d9b9b1e394c4d6630da7c2586adb1c73c0db1581cc67f95fb20a5c7dd9eb0933604051808273ffffffffffffffffffffffffffffffffffffffff1673ffffffffffffffffffffffffffffffffffffffff16815260200180602001828103825260278152602001806123fd602791396040019250505060405180910390a1610bc333600160009054906101000a900473ffffffffffffffffffffffffffffffffffffffff16600554600654016040518060400160405280600881526020017f44697370757465640000000000000000000000000000000000000000000000008152506121a4565b5b50565b600260149054906101000a900460ff1681565b6000809054906101000a900473ffffffffffffffffffffffffffffffffffffffff1681565b600160009054906101000a900473ffffffffffffffffffffffffffffffffffffffff1681565b60008060006060610c346122dc565b60098681548110610c4157fe5b90600052602060002090600402016040518060800160405290816000820160009054906101000a900473ffffffffffffffffffffffffffffffffffffffff1673ffffffffffffffffffffffffffffffffffffffff1673ffffffffffffffffffffffffffffffffffffffff1681526020016001820160009054906101000a900473ffffffffffffffffffffffffffffffffffffffff1673ffffffffffffffffffffffffffffffffffffffff1673ffffffffffffffffffffffffffffffffffffffff16815260200160028201548152602001600382018054600181600116156101000203166002900480601f016020809104026020016040519081016040528092919081815260200182805460018160011615610100020316600290048015610da95780601f10610d7e57610100808354040283529160200191610da9565b820191906000526020600020905b815481529060010190602001808311610d8c57829003601f168201915b505050505081525050905080600001518160200151826040015183606001518090509450945094509450509193509193565b6005811115610e52576040517f08c379a00000000000000000000000000000000000000000000000000000000081526004018080602001828103825260108152602001807f4d617820726174696e6720697320352e0000000000000000000000000000000081525060200191505060405180910390fd5b600281600860008573ffffffffffffffffffffffffffffffffffffffff1673ffffffffffffffffffffffffffffffffffffffff168152602001908152602001600020540181610e9d57fe5b04600860008473ffffffffffffffffffffffffffffffffffffffff1673ffffffffffffffffffffffffffffffffffffffff168152602001908152602001600020819055505050565b600160009054906101000a900473ffffffffffffffffffffffffffffffffffffffff1673ffffffffffffffffffffffffffffffffffffffff163373ffffffffffffffffffffffffffffffffffffffff1614610fa8576040517f08c379a00000000000000000000000000000000000000000000000000000000081526004018080602001828103825260208152602001807f4f6e6c792044532063616e20706572666f726d207468697320616374696f6e2e81525060200191505060405180910390fd5b600554341461101f576040517f08c379a00000000000000000000000000000000000000000000000000000000081526004018080602001828103825260188152602001807f496e636f7272656374206465706f7369742076616c75652e000000000000000081525060200191505060405180910390fd5b7f8a1c5dc5e32c950fc94e8ff339fe69c495c7eac608df9ac09488fc9fc97954ef600160009054906101000a900473ffffffffffffffffffffffffffffffffffffffff1660405180806020018373ffffffffffffffffffffffffffffffffffffffff1673ffffffffffffffffffffffffffffffffffffffff1681526020018281038252600c8152602001807f53656c6c696e67206461746100000000000000000000000000000000000000008152506020019250505060405180910390a1565b600260009054906101000a900473ffffffffffffffffffffffffffffffffffffffff1673ffffffffffffffffffffffffffffffffffffffff163373ffffffffffffffffffffffffffffffffffffffff16146111a2576040517f08c379a00000000000000000000000000000000000000000000000000000000081526004018080602001828103825260208152602001807f4f6e6c792044502063616e20706572666f726d207468697320616374696f6e2e81525060200191505060405180910390fd5b600060058111156111af57fe5b600760003373ffffffffffffffffffffffffffffffffffffffff1673ffffffffffffffffffffffffffffffffffffffff16815260200190815260200160002060000160009054906101000a900460ff16600581111561120a57fe5b1461127d576040517f08c379a00000000000000000000000000000000000000000000000000000000081526004018080602001828103825260138152602001807f526566756e64206e6f7420616c6c6f7765642e0000000000000000000000000081525060200191505060405180910390fd5b60006006546005540190503373ffffffffffffffffffffffffffffffffffffffff166108fc829081150290604051600060405180830381858888f193505050501580156112ce573d6000803e3d6000fd5b506005600760003373ffffffffffffffffffffffffffffffffffffffff1673ffffffffffffffffffffffffffffffffffffffff16815260200190815260200160002060000160006101000a81548160ff0219169083600581111561132e57fe5b02179055507f5499cf01fb1a6618fbc9ff5cfc678d596d8e7333343eaabf4f37a8987ec2b7313360405180806020018373ffffffffffffffffffffffffffffffffffffffff1673ffffffffffffffffffffffffffffffffffffffff168152602001828103825260148152602001807f445020686173206265656e20726566756e6465640000000000000000000000008152506020019250505060405180910390a161143233600160009054906101000a900473ffffffffffffffffffffffffffffffffffffffff16836040518060400160405280600881526020017f526566756e6465640000000000000000000000000000000000000000000000008152506121a4565b50565b600260009054906101000a900473ffffffffffffffffffffffffffffffffffffffff1673ffffffffffffffffffffffffffffffffffffffff163373ffffffffffffffffffffffffffffffffffffffff16146114f8576040517f08c379a00000000000000000000000000000000000000000000000000000000081526004018080602001828103825260208152602001807f4f6e6c792044502063616e20706572666f726d207468697320616374696f6e2e81525060200191505060405180910390fd5b600554600654013414611573576040517f08c379a00000000000000000000000000000000000000000000000000000000081526004018080602001828103825260158152602001807f496e636f72726563742076616c75652073656e742e000000000000000000000081525060200191505060405180910390fd5b6000600181111561158057fe5b600260149054906101000a900460ff16600181111561159b57fe5b1461160e576040517f08c379a000000000000000000000000000000000000000000000000000000000815260040180806020018281038252600f8152602001807f496e76616c6964207374617475732e000000000000000000000000000000000081525060200191505060405180910390fd5b6000600760003373ffffffffffffffffffffffffffffffffffffffff1673ffffffffffffffffffffffffffffffffffffffff16815260200190815260200160002060000160006101000a81548160ff0219169083600581111561166d57fe5b02179055507f4ab5a178e88ba91e31ccc9998f030dccb276a2717f7f48d8a9a42de002cc692f33604051808273ffffffffffffffffffffffffffffffffffffffff1673ffffffffffffffffffffffffffffffffffffffff16815260200180602001828103825260278152602001806123d6602791396040019250505060405180910390a1600360008154809291906001019190505550565b60045481565b600260009054906101000a900473ffffffffffffffffffffffffffffffffffffffff1681565b60065481565b6009818154811061174457fe5b90600052602060002090600402016000915090508060000160009054906101000a900473ffffffffffffffffffffffffffffffffffffffff16908060010160009054906101000a900473ffffffffffffffffffffffffffffffffffffffff1690806002015490806003018054600181600116156101000203166002900480601f0160208091040260200160405190810160405280929190818152602001828054600181600116156101000203166002900480156118425780601f1061181757610100808354040283529160200191611842565b820191906000526020600020905b81548152906001019060200180831161182557829003601f168201915b5050505050905084565b60086020528060005260406000206000915090505481565b6000809054906101000a900473ffffffffffffffffffffffffffffffffffffffff1673ffffffffffffffffffffffffffffffffffffffff163373ffffffffffffffffffffffffffffffffffffffff1614611909576040517f08c379a00000000000000000000000000000000000000000000000000000000081526004018080602001828103825260218152602001806124246021913960400191505060405180910390fd5b6002600581111561191657fe5b600760008473ffffffffffffffffffffffffffffffffffffffff1673ffffffffffffffffffffffffffffffffffffffff16815260200190815260200160002060000160009054906101000a900460ff16600581111561197157fe5b146119e4576040517f08c379a000000000000000000000000000000000000000000000000000000000815260040180806020018281038252600f8152602001807f496e76616c6964207374617475732e000000000000000000000000000000000081525060200191505060405180910390fd5b8015611c72577f8dafcc567dd3ba3d131227036cc21ed1dce94b43d9aee6b2de1eabe8fdfd125782604051808273ffffffffffffffffffffffffffffffffffffffff1673ffffffffffffffffffffffffffffffffffffffff16815260200180602001828103825260158152602001807f44502073686f756c6420626520726566756e64656400000000000000000000008152506020019250505060405180910390a18173ffffffffffffffffffffffffffffffffffffffff166108fc600554600654019081150290604051600060405180830381858888f19350505050158015611ad2573d6000803e3d6000fd5b506000809054906101000a900473ffffffffffffffffffffffffffffffffffffffff1673ffffffffffffffffffffffffffffffffffffffff166108fc6005549081150290604051600060405180830381858888f19350505050158015611b3c573d6000803e3d6000fd5b507f6c91cab5674b0eeec8f139f81287e7dcc1632a9ff7c8a0c9469507825ea93cfa82604051808273ffffffffffffffffffffffffffffffffffffffff1673ffffffffffffffffffffffffffffffffffffffff16815260200191505060405180910390a16004600760008473ffffffffffffffffffffffffffffffffffffffff1673ffffffffffffffffffffffffffffffffffffffff16815260200190815260200160002060000160006101000a81548160ff02191690836005811115611bff57fe5b0217905550611c6d82600160009054906101000a900473ffffffffffffffffffffffffffffffffffffffff16600554600654016040518060400160405280600881526020017f526566756e6465640000000000000000000000000000000000000000000000008152506121a4565b611de5565b7fec6c63d53120390e4ddc86b787388bbd84673bdcaeb0279cabf97051f4db86b482604051808273ffffffffffffffffffffffffffffffffffffffff1673ffffffffffffffffffffffffffffffffffffffff168152602001806020018281038252600c8152602001807f44502069732057726f6e672e00000000000000000000000000000000000000008152506020019250505060405180910390a16003600760008473ffffffffffffffffffffffffffffffffffffffff1673ffffffffffffffffffffffffffffffffffffffff16815260200190815260200160002060000160006101000a81548160ff02191690836005811115611d6d57fe5b0217905550611d7b82611e20565b611de482600160009054906101000a900473ffffffffffffffffffffffffffffffffffffffff16600554600654016040518060400160405280600781526020017f536574746c6564000000000000000000000000000000000000000000000000008152506121a4565b5b5050565b60055481565b60076020528060005260406000206000915090508060000160009054906101000a900460ff16905081565b60035481565b60016005811115611e2d57fe5b600760008373ffffffffffffffffffffffffffffffffffffffff1673ffffffffffffffffffffffffffffffffffffffff16815260200190815260200160002060000160009054906101000a900460ff166005811115611e8857fe5b1480611ef9575060036005811115611e9c57fe5b600760008373ffffffffffffffffffffffffffffffffffffffff1673ffffffffffffffffffffffffffffffffffffffff16815260200190815260200160002060000160009054906101000a900460ff166005811115611ef757fe5b145b611f6b576040517f08c379a000000000000000000000000000000000000000000000000000000000815260040180806020018281038252600f8152602001807f496e76616c6964207374617475732e000000000000000000000000000000000081525060200191505060405180910390fd5b6000600260065481611f7957fe5b049050600081600554019050600160009054906101000a900473ffffffffffffffffffffffffffffffffffffffff1673ffffffffffffffffffffffffffffffffffffffff166108fc829081150290604051600060405180830381858888f19350505050158015611fed573d6000803e3d6000fd5b506000809054906101000a900473ffffffffffffffffffffffffffffffffffffffff1673ffffffffffffffffffffffffffffffffffffffff166108fc839081150290604051600060405180830381858888f19350505050158015612055573d6000803e3d6000fd5b508273ffffffffffffffffffffffffffffffffffffffff166108fc6005549081150290604051600060405180830381858888f1935050505015801561209e573d6000803e3d6000fd5b507f158d68a439246c67485bf94343db5ad9413336d0e6b273ea66a0bbc206c5c6c183604051808273ffffffffffffffffffffffffffffffffffffffff1673ffffffffffffffffffffffffffffffffffffffff168152602001806020018281038252600f8152602001807f5061796d656e7420736574746c656400000000000000000000000000000000008152506020019250505060405180910390a16004600760008573ffffffffffffffffffffffffffffffffffffffff1673ffffffffffffffffffffffffffffffffffffffff16815260200190815260200160002060000160006101000a81548160ff0219169083600581111561219a57fe5b0217905550505050565b600960405180608001604052808673ffffffffffffffffffffffffffffffffffffffff1681526020018573ffffffffffffffffffffffffffffffffffffffff168152602001848152602001838152509080600181540180825580915050906001820390600052602060002090600402016000909192909190915060008201518160000160006101000a81548173ffffffffffffffffffffffffffffffffffffffff021916908373ffffffffffffffffffffffffffffffffffffffff16021790555060208201518160010160006101000a81548173ffffffffffffffffffffffffffffffffffffffff021916908373ffffffffffffffffffffffffffffffffffffffff1602179055506040820151816002015560608201518160030190805190602001906122d2929190612330565b5050505050505050565b6040518060800160405280600073ffffffffffffffffffffffffffffffffffffffff168152602001600073ffffffffffffffffffffffffffffffffffffffff16815260200160008152602001606081525090565b828054600181600116156101000203166002900490600052602060002090601f016020900481019282601f1061237157805160ff191683800117855561239f565b8280016001018555821561239f579182015b8281111561239e578251825591602001919060010190612383565b5b5090506123ac91906123b0565b5090565b6123d291905b808211156123ce5760008160009055506001016123b6565b5090565b9056fe4450206465706f736974656420616e64207061696420666f722064617461207265736f7572636544544320697320696e766f6c76656420696e2064697370757465206172626974726174696f6e2e4f6e6c79204454432063616e20706572666f726d207468697320616374696f6e2ea265627a7a7231582022ce6b5485d0ede5158fb0439f0fa232f5e6ec90d79e897e61b3ce04154e87a864736f6c63430005100032",
  "source": "pragma solidity ^0.5.16;\r\n\r\ncontract DTSC {\r\n  address payable public dtc;\r\n  address payable public ds;\r\n  address payable public dp;\r\n  enum DTSCStatus { WaitingforDP, Aborted }\r\n  DTSCStatus public status;\r\n  enum DPStatus { DPDeposited, SuccessfulTrading, Unsatisfied, DPIsWrong, TradingCompleted, Refunded }\r\n  uint public numberOfDPs;\r\n  uint public numberOfSuccessfulSales;\r\n  uint public deposit;\r\n  uint public dataprice;\r\n\r\n  struct Purchaser {\r\n    DPStatus status;\r\n  }\r\n\r\n  mapping(address => Purchaser) public DPs;\r\n  mapping(address => uint) public ratings;\r\n\r\n  // Estrutura para rastrear transaes\r\n  struct Transaction {\r\n    address purchaser;\r\n    address supplier;\r\n    uint value;\r\n    string status; // Exemplo: \"Successful\", \"Refunded\", \"Disputed\"\r\n  }\r\n\r\n  Transaction[] public transactions; // Lista de transaes\r\n\r\n  modifier DPCost() {\r\n    require(msg.value == dataprice + deposit, \"Incorrect value sent.\");\r\n    _;\r\n  }\r\n\r\n  modifier OnlyDTC() {\r\n    require(msg.sender == dtc, \"Only DTC can perform this action.\");\r\n    _;\r\n  }\r\n\r\n  modifier OnlyDS() {\r\n    require(msg.sender == ds, \"Only DS can perform this action.\");\r\n    _;\r\n  }\r\n\r\n  modifier OnlyDP() {\r\n    require(msg.sender == dp, \"Only DP can perform this action.\");\r\n    _;\r\n  }\r\n\r\n  modifier DSCost() {\r\n    require(msg.value == deposit, \"Incorrect deposit value.\");\r\n    _;\r\n  }\r\n\r\n  // Novo construtor para configurar dinamicamente os endereos\r\n  constructor(\r\n    address payable _dtc,\r\n    address payable _ds,\r\n    address payable _dp\r\n  ) public {\r\n    dtc = _dtc;\r\n    ds = _ds;\r\n    dp = _dp;\r\n    status = DTSCStatus.WaitingforDP;\r\n    deposit = 3 ether;\r\n    dataprice = 2 ether;\r\n    numberOfDPs = 0;\r\n    numberOfSuccessfulSales = 0;\r\n  }\r\n\r\n  function rateUser(address user, uint score) public { // Adicionado\r\n        require(score <= 5, \"Max rating is 5.\");\r\n        ratings[user] = (ratings[user] + score) / 2;\r\n    }\r\n  \r\n  event DSDeposited(string info, address DS);\r\n  event DPDepositedandPaid(address DP, string info);\r\n  event successfulTrading(address DP);\r\n  event unsuccessfulTrading(address DP);\r\n  event DTCArbitrationThroughDTCSC(address DP, string info);\r\n  event DPRight(address DP, string info);\r\n  event DPWrong(address DP, string info);\r\n  event refundDone(address DP);\r\n  event paymentSettled(address DP, string info);\r\n  event RefundBasedOnDPRequest(string info, address DP);\r\n\r\n  // Funo para rastrear transaes\r\n  function recordTransaction(\r\n    address _purchaser,\r\n    address _supplier,\r\n    uint _value,\r\n    string memory _status\r\n  ) internal {\r\n    transactions.push(Transaction({\r\n      purchaser: _purchaser,\r\n      supplier: _supplier,\r\n      value: _value,\r\n      status: _status\r\n    }));\r\n  }\r\n\r\n  function RequestSellData() OnlyDS DSCost public payable {\r\n    emit DSDeposited(\"Selling data\", ds);\r\n  }\r\n\r\n  function RequestGetData() OnlyDP DPCost public payable {\r\n    require(status == DTSCStatus.WaitingforDP, \"Invalid status.\");\r\n    DPs[msg.sender].status = DPStatus.DPDeposited;\r\n    emit DPDepositedandPaid(msg.sender, \"DP deposited and paid for data resource\");\r\n    numberOfDPs++;\r\n  }\r\n\r\n  function refund() OnlyDP public {\r\n    require(DPs[msg.sender].status == DPStatus.DPDeposited, \"Refund not allowed.\");\r\n    uint x = deposit + dataprice;\r\n    msg.sender.transfer(x);\r\n    DPs[msg.sender].status = DPStatus.Refunded;\r\n    emit RefundBasedOnDPRequest(\"DP has been refunded\", msg.sender);\r\n\r\n    // Registro da transao\r\n    recordTransaction(msg.sender, ds, x, \"Refunded\");\r\n  }\r\n\r\n  function ConfirmResult(bool result) OnlyDP public {\r\n    require(DPs[msg.sender].status == DPStatus.DPDeposited, \"Invalid status.\");\r\n    if (result) {\r\n      emit successfulTrading(msg.sender);\r\n      DPs[msg.sender].status = DPStatus.SuccessfulTrading;\r\n      settlepayment(msg.sender);\r\n\r\n      // Registro da transao\r\n      recordTransaction(msg.sender, ds, dataprice + deposit, \"Successful\");\r\n    } else {\r\n      emit unsuccessfulTrading(msg.sender);\r\n      DPs[msg.sender].status = DPStatus.Unsatisfied;\r\n      emit DTCArbitrationThroughDTCSC(msg.sender, \"DTC is involved in dispute arbitration.\");\r\n\r\n      // Registro da transao\r\n      recordTransaction(msg.sender, ds, dataprice + deposit, \"Disputed\");\r\n    }\r\n  }\r\n\r\n  function SettleDisputeAndPayment(address payable DP, bool result) OnlyDTC public {\r\n    require(DPs[DP].status == DPStatus.Unsatisfied, \"Invalid status.\");\r\n    if (result) {\r\n      emit DPRight(DP, \"DP should be refunded\");\r\n      DP.transfer(dataprice + deposit);\r\n      dtc.transfer(deposit);\r\n      emit refundDone(DP);\r\n      DPs[DP].status = DPStatus.TradingCompleted;\r\n\r\n      // Registro da transao\r\n      recordTransaction(DP, ds, dataprice + deposit, \"Refunded\");\r\n    } else {\r\n      emit DPWrong(DP, \"DP is Wrong.\");\r\n      DPs[DP].status = DPStatus.DPIsWrong;\r\n      settlepayment(DP);\r\n\r\n      // Registro da transao\r\n      recordTransaction(DP, ds, dataprice + deposit, \"Settled\");\r\n    }\r\n  }\r\n\r\n  function settlepayment(address payable DP) internal {\r\n    require(\r\n      DPs[DP].status == DPStatus.SuccessfulTrading || DPs[DP].status == DPStatus.DPIsWrong,\r\n      \"Invalid status.\"\r\n    );\r\n    uint x = dataprice / 2;\r\n    uint dsincome = deposit + x;\r\n    ds.transfer(dsincome);\r\n    dtc.transfer(x);\r\n    DP.transfer(deposit);\r\n    emit paymentSettled(DP, \"Payment settled\");\r\n    DPs[DP].status = DPStatus.TradingCompleted;\r\n  }\r\n\r\n  // Recuperar transaes\r\n  function getTransaction(uint index) public view returns (address, address, uint, string memory) {\r\n    Transaction memory txn = transactions[index];\r\n    return (txn.purchaser, txn.supplier, txn.value, txn.status);\r\n  }\r\n}\r\n",
  "sourcePath": "/workspaces/DTC-SC/contracts/DTSC.sol",
  "compiler": {
    "name": "solc",
    "version": "0.5.16+commit.9c3226ce.Emscripten.clang"
  },
  "schemaVersion": "3.4.16",
  "updatedAt": "2024-11-17T23:35:52.881Z",
  "networkType": "ethereum",
  "devdoc": {
    "methods": {}
  },
  "userdoc": {
    "methods": {}
  }
}