{
  "contractName": "DTSC",
  "abi": [
    {
      "inputs": [],
      "payable": false,
      "stateMutability": "nonpayable",
      "type": "constructor"
    },
    {
      "anonymous": false,
      "inputs": [
        {
          "indexed": false,
          "internalType": "address",
          "name": "DP",
          "type": "address"
        },
        {
          "indexed": false,
          "internalType": "string",
          "name": "info",
          "type": "string"
        }
      ],
      "name": "DPDepositedandPaid",
      "type": "event"
    },
    {
      "anonymous": false,
      "inputs": [
        {
          "indexed": false,
          "internalType": "address",
          "name": "DP",
          "type": "address"
        },
        {
          "indexed": false,
          "internalType": "string",
          "name": "info",
          "type": "string"
        }
      ],
      "name": "DPRight",
      "type": "event"
    },
    {
      "anonymous": false,
      "inputs": [
        {
          "indexed": false,
          "internalType": "address",
          "name": "DP",
          "type": "address"
        },
        {
          "indexed": false,
          "internalType": "string",
          "name": "info",
          "type": "string"
        }
      ],
      "name": "DPWrong",
      "type": "event"
    },
    {
      "anonymous": false,
      "inputs": [
        {
          "indexed": false,
          "internalType": "string",
          "name": "info",
          "type": "string"
        },
        {
          "indexed": false,
          "internalType": "address",
          "name": "DS",
          "type": "address"
        }
      ],
      "name": "DSDeposited",
      "type": "event"
    },
    {
      "anonymous": false,
      "inputs": [
        {
          "indexed": false,
          "internalType": "address",
          "name": "DP",
          "type": "address"
        },
        {
          "indexed": false,
          "internalType": "string",
          "name": "info",
          "type": "string"
        }
      ],
      "name": "DTCArbitrationThroughDTCSC",
      "type": "event"
    },
    {
      "anonymous": false,
      "inputs": [
        {
          "indexed": false,
          "internalType": "string",
          "name": "info",
          "type": "string"
        },
        {
          "indexed": false,
          "internalType": "address",
          "name": "DP",
          "type": "address"
        }
      ],
      "name": "RefundBasedOnDPRequest",
      "type": "event"
    },
    {
      "anonymous": false,
      "inputs": [
        {
          "indexed": false,
          "internalType": "address",
          "name": "DP",
          "type": "address"
        },
        {
          "indexed": false,
          "internalType": "string",
          "name": "info",
          "type": "string"
        }
      ],
      "name": "paymentSettled",
      "type": "event"
    },
    {
      "anonymous": false,
      "inputs": [
        {
          "indexed": false,
          "internalType": "address",
          "name": "DP",
          "type": "address"
        }
      ],
      "name": "refundDone",
      "type": "event"
    },
    {
      "anonymous": false,
      "inputs": [
        {
          "indexed": false,
          "internalType": "address",
          "name": "DP",
          "type": "address"
        }
      ],
      "name": "successfulTrading",
      "type": "event"
    },
    {
      "anonymous": false,
      "inputs": [
        {
          "indexed": false,
          "internalType": "address",
          "name": "DP",
          "type": "address"
        }
      ],
      "name": "unsuccessfulTrading",
      "type": "event"
    },
    {
      "constant": true,
      "inputs": [
        {
          "internalType": "address",
          "name": "",
          "type": "address"
        }
      ],
      "name": "DPs",
      "outputs": [
        {
          "internalType": "enum DTSC.DPStatus",
          "name": "status",
          "type": "uint8"
        }
      ],
      "payable": false,
      "stateMutability": "view",
      "type": "function"
    },
    {
      "constant": true,
      "inputs": [],
      "name": "dataprice",
      "outputs": [
        {
          "internalType": "uint256",
          "name": "",
          "type": "uint256"
        }
      ],
      "payable": false,
      "stateMutability": "view",
      "type": "function"
    },
    {
      "constant": true,
      "inputs": [],
      "name": "deposit",
      "outputs": [
        {
          "internalType": "uint256",
          "name": "",
          "type": "uint256"
        }
      ],
      "payable": false,
      "stateMutability": "view",
      "type": "function"
    },
    {
      "constant": true,
      "inputs": [],
      "name": "dp",
      "outputs": [
        {
          "internalType": "address payable",
          "name": "",
          "type": "address"
        }
      ],
      "payable": false,
      "stateMutability": "view",
      "type": "function"
    },
    {
      "constant": true,
      "inputs": [],
      "name": "ds",
      "outputs": [
        {
          "internalType": "address payable",
          "name": "",
          "type": "address"
        }
      ],
      "payable": false,
      "stateMutability": "view",
      "type": "function"
    },
    {
      "constant": true,
      "inputs": [],
      "name": "dtc",
      "outputs": [
        {
          "internalType": "address payable",
          "name": "",
          "type": "address"
        }
      ],
      "payable": false,
      "stateMutability": "view",
      "type": "function"
    },
    {
      "constant": true,
      "inputs": [],
      "name": "status",
      "outputs": [
        {
          "internalType": "enum DTSC.DTSCStatus",
          "name": "",
          "type": "uint8"
        }
      ],
      "payable": false,
      "stateMutability": "view",
      "type": "function"
    },
    {
      "constant": false,
      "inputs": [],
      "name": "RequestSellData",
      "outputs": [],
      "payable": true,
      "stateMutability": "payable",
      "type": "function"
    },
    {
      "constant": false,
      "inputs": [],
      "name": "RequestGetData",
      "outputs": [],
      "payable": true,
      "stateMutability": "payable",
      "type": "function"
    },
    {
      "constant": false,
      "inputs": [],
      "name": "refund",
      "outputs": [],
      "payable": false,
      "stateMutability": "nonpayable",
      "type": "function"
    },
    {
      "constant": false,
      "inputs": [
        {
          "internalType": "bool",
          "name": "result",
          "type": "bool"
        }
      ],
      "name": "ConfirmResult",
      "outputs": [],
      "payable": false,
      "stateMutability": "nonpayable",
      "type": "function"
    },
    {
      "constant": false,
      "inputs": [
        {
          "internalType": "address payable",
          "name": "DP",
          "type": "address"
        },
        {
          "internalType": "bool",
          "name": "result",
          "type": "bool"
        }
      ],
      "name": "SettleDisputeAndPayment",
      "outputs": [],
      "payable": false,
      "stateMutability": "nonpayable",
      "type": "function"
    }
  ],
  "bytecode": "0x608060405234801561001057600080fd5b507362b1e832130672cfed8cab10c0919993a505b3116000806101000a81548173ffffffffffffffffffffffffffffffffffffffff021916908373ffffffffffffffffffffffffffffffffffffffff16021790555072225d5ac189405947e027ddd6c5c6ccf9ed8972600160006101000a81548173ffffffffffffffffffffffffffffffffffffffff021916908373ffffffffffffffffffffffffffffffffffffffff16021790555072bfaa40777963f2324e1f5b3e0f427fea8f4ac7600260006101000a81548173ffffffffffffffffffffffffffffffffffffffff021916908373ffffffffffffffffffffffffffffffffffffffff1602179055506000600260146101000a81548160ff0219169083600181111561012c57fe5b02179055506729a2241af62c0000600581905550671bc16d674ec80000600681905550600060038190555060006004819055506113f88061016e6000396000f3fe6080604052600436106100a75760003560e01c80637638f680116100645780637638f680146101f157806393eb049d146101fb5780639934105e14610252578063b95c7a061461027d578063d0e30db0146102da578063da43b95a14610305576100a7565b80630119cef5146100ac578063200d2ed2146100e9578063306f0b761461012257806330dce62b146101795780634f480abb146101d0578063590e1ae3146101da575b600080fd5b3480156100b857600080fd5b506100e7600480360360208110156100cf57600080fd5b81019080803515159060200190929190505050610378565b005b3480156100f557600080fd5b506100fe610669565b6040518082600181111561010e57fe5b60ff16815260200191505060405180910390f35b34801561012e57600080fd5b5061013761067c565b604051808273ffffffffffffffffffffffffffffffffffffffff1673ffffffffffffffffffffffffffffffffffffffff16815260200191505060405180910390f35b34801561018557600080fd5b5061018e6106a1565b604051808273ffffffffffffffffffffffffffffffffffffffff1673ffffffffffffffffffffffffffffffffffffffff16815260200191505060405180910390f35b6101d86106c7565b005b3480156101e657600080fd5b506101ef610849565b005b6101f9610a6a565b005b34801561020757600080fd5b50610210610bff565b604051808273ffffffffffffffffffffffffffffffffffffffff1673ffffffffffffffffffffffffffffffffffffffff16815260200191505060405180910390f35b34801561025e57600080fd5b50610267610c25565b6040518082815260200191505060405180910390f35b34801561028957600080fd5b506102d8600480360360408110156102a057600080fd5b81019080803573ffffffffffffffffffffffffffffffffffffffff169060200190929190803515159060200190929190505050610c2b565b005b3480156102e657600080fd5b506102ef611029565b6040518082815260200191505060405180910390f35b34801561031157600080fd5b506103546004803603602081101561032857600080fd5b81019080803573ffffffffffffffffffffffffffffffffffffffff16906020019092919050505061102f565b6040518082600581111561036457fe5b60ff16815260200191505060405180910390f35b600260009054906101000a900473ffffffffffffffffffffffffffffffffffffffff1673ffffffffffffffffffffffffffffffffffffffff163373ffffffffffffffffffffffffffffffffffffffff16146103d257600080fd5b600060058111156103df57fe5b600760003373ffffffffffffffffffffffffffffffffffffffff1673ffffffffffffffffffffffffffffffffffffffff16815260200190815260200160002060000160009054906101000a900460ff16600581111561043a57fe5b1461044457600080fd5b801561051f577fdbc5ae7d32e2e6861e4a606b095bc49bd956351c7f4db1ca448bb5f4f11447e633604051808273ffffffffffffffffffffffffffffffffffffffff1673ffffffffffffffffffffffffffffffffffffffff16815260200191505060405180910390a16001600760003373ffffffffffffffffffffffffffffffffffffffff1673ffffffffffffffffffffffffffffffffffffffff16815260200190815260200160002060000160006101000a81548160ff0219169083600581111561050c57fe5b021790555061051a3361105a565b610666565b7f20699f79cfa85a508683c7dd12178dd1f4b2ea8ca093d37bf508b37b7c994df333604051808273ffffffffffffffffffffffffffffffffffffffff1673ffffffffffffffffffffffffffffffffffffffff16815260200191505060405180910390a16002600760003373ffffffffffffffffffffffffffffffffffffffff1673ffffffffffffffffffffffffffffffffffffffff16815260200190815260200160002060000160006101000a81548160ff021916908360058111156105e157fe5b02179055507f19d9b9b1e394c4d6630da7c2586adb1c73c0db1581cc67f95fb20a5c7dd9eb0933604051808273ffffffffffffffffffffffffffffffffffffffff1673ffffffffffffffffffffffffffffffffffffffff168152602001806020018281038252602781526020018061139d602791396040019250505060405180910390a15b50565b600260149054906101000a900460ff1681565b6000809054906101000a900473ffffffffffffffffffffffffffffffffffffffff1681565b600160009054906101000a900473ffffffffffffffffffffffffffffffffffffffff1681565b600160009054906101000a900473ffffffffffffffffffffffffffffffffffffffff1673ffffffffffffffffffffffffffffffffffffffff163373ffffffffffffffffffffffffffffffffffffffff161461072157600080fd5b600554341461072f57600080fd5b600160009054906101000a900473ffffffffffffffffffffffffffffffffffffffff1673ffffffffffffffffffffffffffffffffffffffff163373ffffffffffffffffffffffffffffffffffffffff161461078957600080fd5b7f8a1c5dc5e32c950fc94e8ff339fe69c495c7eac608df9ac09488fc9fc97954ef600160009054906101000a900473ffffffffffffffffffffffffffffffffffffffff1660405180806020018373ffffffffffffffffffffffffffffffffffffffff1673ffffffffffffffffffffffffffffffffffffffff1681526020018281038252600c8152602001807f53656c6c696e67206461746100000000000000000000000000000000000000008152506020019250505060405180910390a1565b600260009054906101000a900473ffffffffffffffffffffffffffffffffffffffff1673ffffffffffffffffffffffffffffffffffffffff163373ffffffffffffffffffffffffffffffffffffffff16146108a357600080fd5b600060058111156108b057fe5b600760003373ffffffffffffffffffffffffffffffffffffffff1673ffffffffffffffffffffffffffffffffffffffff16815260200190815260200160002060000160009054906101000a900460ff16600581111561090b57fe5b1461091557600080fd5b60006006546005540190503373ffffffffffffffffffffffffffffffffffffffff166108fc829081150290604051600060405180830381858888f19350505050158015610966573d6000803e3d6000fd5b506005600760003373ffffffffffffffffffffffffffffffffffffffff1673ffffffffffffffffffffffffffffffffffffffff16815260200190815260200160002060000160006101000a81548160ff021916908360058111156109c657fe5b02179055507f5499cf01fb1a6618fbc9ff5cfc678d596d8e7333343eaabf4f37a8987ec2b7313360405180806020018373ffffffffffffffffffffffffffffffffffffffff1673ffffffffffffffffffffffffffffffffffffffff168152602001828103825260148152602001807f445020686173206265656e20726566756e6465640000000000000000000000008152506020019250505060405180910390a150565b600260009054906101000a900473ffffffffffffffffffffffffffffffffffffffff1673ffffffffffffffffffffffffffffffffffffffff163373ffffffffffffffffffffffffffffffffffffffff1614610ac457600080fd5b600554600654013414610ad657600080fd5b60006001811115610ae357fe5b600260149054906101000a900460ff166001811115610afe57fe5b14610b0857600080fd5b6000600760003373ffffffffffffffffffffffffffffffffffffffff1673ffffffffffffffffffffffffffffffffffffffff16815260200190815260200160002060000160006101000a81548160ff02191690836005811115610b6757fe5b02179055507f4ab5a178e88ba91e31ccc9998f030dccb276a2717f7f48d8a9a42de002cc692f33604051808273ffffffffffffffffffffffffffffffffffffffff1673ffffffffffffffffffffffffffffffffffffffff1681526020018060200182810382526027815260200180611376602791396040019250505060405180910390a1600360008154809291906001019190505550565b600260009054906101000a900473ffffffffffffffffffffffffffffffffffffffff1681565b60065481565b6000809054906101000a900473ffffffffffffffffffffffffffffffffffffffff1673ffffffffffffffffffffffffffffffffffffffff163373ffffffffffffffffffffffffffffffffffffffff1614610c8457600080fd5b60026005811115610c9157fe5b600760008473ffffffffffffffffffffffffffffffffffffffff1673ffffffffffffffffffffffffffffffffffffffff16815260200190815260200160002060000160009054906101000a900460ff166005811115610cec57fe5b14610cf657600080fd5b8015610f1b577f8dafcc567dd3ba3d131227036cc21ed1dce94b43d9aee6b2de1eabe8fdfd125782604051808273ffffffffffffffffffffffffffffffffffffffff1673ffffffffffffffffffffffffffffffffffffffff16815260200180602001828103825260158152602001807f44502073686f756c6420626520726566756e64656400000000000000000000008152506020019250505060405180910390a18173ffffffffffffffffffffffffffffffffffffffff166108fc600554600654019081150290604051600060405180830381858888f19350505050158015610de4573d6000803e3d6000fd5b506000809054906101000a900473ffffffffffffffffffffffffffffffffffffffff1673ffffffffffffffffffffffffffffffffffffffff166108fc6005549081150290604051600060405180830381858888f19350505050158015610e4e573d6000803e3d6000fd5b507f6c91cab5674b0eeec8f139f81287e7dcc1632a9ff7c8a0c9469507825ea93cfa82604051808273ffffffffffffffffffffffffffffffffffffffff1673ffffffffffffffffffffffffffffffffffffffff16815260200191505060405180910390a16004600760008473ffffffffffffffffffffffffffffffffffffffff1673ffffffffffffffffffffffffffffffffffffffff16815260200190815260200160002060000160006101000a81548160ff02191690836005811115610f1157fe5b0217905550611025565b7fec6c63d53120390e4ddc86b787388bbd84673bdcaeb0279cabf97051f4db86b482604051808273ffffffffffffffffffffffffffffffffffffffff1673ffffffffffffffffffffffffffffffffffffffff168152602001806020018281038252600c8152602001807f44502069732057726f6e672e00000000000000000000000000000000000000008152506020019250505060405180910390a16003600760008473ffffffffffffffffffffffffffffffffffffffff1673ffffffffffffffffffffffffffffffffffffffff16815260200190815260200160002060000160006101000a81548160ff0219169083600581111561101657fe5b02179055506110248261105a565b5b5050565b60055481565b60076020528060005260406000206000915090508060000160009054906101000a900460ff16905081565b6001600581111561106757fe5b600760008373ffffffffffffffffffffffffffffffffffffffff1673ffffffffffffffffffffffffffffffffffffffff16815260200190815260200160002060000160009054906101000a900460ff1660058111156110c257fe5b14806111335750600360058111156110d657fe5b600760008373ffffffffffffffffffffffffffffffffffffffff1673ffffffffffffffffffffffffffffffffffffffff16815260200190815260200160002060000160009054906101000a900460ff16600581111561113157fe5b145b61113c57600080fd5b600060026006548161114a57fe5b049050600081600554019050600160009054906101000a900473ffffffffffffffffffffffffffffffffffffffff1673ffffffffffffffffffffffffffffffffffffffff166108fc829081150290604051600060405180830381858888f193505050501580156111be573d6000803e3d6000fd5b506000809054906101000a900473ffffffffffffffffffffffffffffffffffffffff1673ffffffffffffffffffffffffffffffffffffffff166108fc839081150290604051600060405180830381858888f19350505050158015611226573d6000803e3d6000fd5b508273ffffffffffffffffffffffffffffffffffffffff166108fc6005549081150290604051600060405180830381858888f1935050505015801561126f573d6000803e3d6000fd5b507f158d68a439246c67485bf94343db5ad9413336d0e6b273ea66a0bbc206c5c6c183604051808273ffffffffffffffffffffffffffffffffffffffff1673ffffffffffffffffffffffffffffffffffffffff168152602001806020018281038252600f8152602001807f5061796d656e7420736574746c656400000000000000000000000000000000008152506020019250505060405180910390a16004600760008573ffffffffffffffffffffffffffffffffffffffff1673ffffffffffffffffffffffffffffffffffffffff16815260200190815260200160002060000160006101000a81548160ff0219169083600581111561136b57fe5b021790555050505056fe4450206465706f736974656420616e64207061696420666f722064617461207265736f7572636544544320697320696e766f6c76656420696e2064697370757465206172626974726174696f6e2ea265627a7a723158209d456d01871727fe28f1cc00d2f3dd1738c87327c30b59a443a9ccb2d79d035864736f6c63430005100032",
  "source": "pragma solidity 0.5.16;\r\n\r\ncontract DTSC{\r\n  address payable public dtc;\r\n  address payable public ds;\r\n  address payable public dp;\r\n  enum DTSCStatus {WaitingforDP, Aborted}\r\n  DTSCStatus public status; \r\n  enum DPStatus {DPDeposited, SuccessfulTrading, Unsatisfied, DPIsWrong, TradingCompleted, Refunded}\r\n  uint numberOfDPs;\r\n  uint numberOfSuccessfulSales;\r\n  uint public deposit;\r\n  uint public dataprice;\r\n\r\n  struct Purchaser{\r\n    DPStatus status;\r\n  }\r\n\r\n  mapping (address => Purchaser) public DPs;\r\n\r\n  modifier DPCost(){\r\n    require(msg.value == dataprice+deposit);\r\n    _;\r\n  }\r\n\r\n  modifier OnlyDTC(){\r\n    require(msg.sender == dtc);\r\n    _;\r\n  }\r\n\r\n  modifier OnlyDS(){\r\n    require(msg.sender == ds);\r\n    _;\r\n  }\r\n\r\n  modifier OnlyDP(){\r\n    require(msg.sender == dp);\r\n    _;\r\n  }\r\n  modifier DSCost(){\r\n    require(msg.value == deposit);\r\n    _;\r\n  }\r\n\r\n  constructor() public {\r\n    dtc = 0x62b1e832130672CfeD8CAb10c0919993a505b311;\r\n    ds = 0x00225D5aC189405947e027ddd6c5C6CCf9ED8972;\r\n    dp = 0x00bFAA40777963f2324e1f5b3e0f427FEa8f4ac7;\r\n    status = DTSCStatus.WaitingforDP;\r\n    deposit = 3 ether;\r\n    dataprice = 2 ether;    \r\n    numberOfDPs = 0;\r\n    numberOfSuccessfulSales = 0;     \r\n  }\r\n  event DSDeposited(string info,address DS);\r\n  event DPDepositedandPaid(address DP, string info);  \r\n  event successfulTrading(address DP);\r\n  event unsuccessfulTrading(address DP);\r\n  event DTCArbitrationThroughDTCSC(address DP, string info);\r\n  event DPRight(address DP, string info);\r\n  event DPWrong(address DP, string info);\r\n  event refundDone(address DP);\r\n  event paymentSettled(address DP, string info);\r\n  event RefundBasedOnDPRequest(string info, address DP);\r\n\r\n  function RequestSellData() OnlyDS DSCost payable public{\r\n    require(msg.sender == ds);\r\n\temit DSDeposited(\"Selling data\", ds);  \r\n  }\r\n \r\n  function RequestGetData() OnlyDP DPCost payable public{\r\n    require(status == DTSCStatus.WaitingforDP);\r\n    DPs[msg.sender].status = DPStatus.DPDeposited;\r\n    emit DPDepositedandPaid(msg.sender, \"DP deposited and paid for data resource\");\r\n    numberOfDPs++;\r\n  }    \r\n\r\n  function refund() OnlyDP public{\r\n    require(DPs[msg.sender].status == DPStatus.DPDeposited);\r\n    uint x = deposit+dataprice;\r\n    msg.sender.transfer(x);\r\n    DPs[msg.sender].status = DPStatus.Refunded;\r\n    emit RefundBasedOnDPRequest(\"DP has been refunded\", msg.sender);\r\n  }  \r\n    \r\n  function ConfirmResult(bool result) OnlyDP public{\r\n    require (DPs[msg.sender].status == DPStatus.DPDeposited);\r\n    if(result){\r\n      emit successfulTrading(msg.sender);\r\n      DPs[msg.sender].status = DPStatus.SuccessfulTrading;\r\n      settlepayment(msg.sender);\r\n    }\r\n    else{\r\n      emit unsuccessfulTrading(msg.sender);\r\n      DPs[msg.sender].status = DPStatus.Unsatisfied;\r\n      emit DTCArbitrationThroughDTCSC(msg.sender, \"DTC is involved in dispute arbitration.\");\r\n    }      \r\n  }\r\n  \r\n  function SettleDisputeAndPayment(address payable DP, bool result) OnlyDTC public{\r\n    require(DPs[DP].status == DPStatus.Unsatisfied);\r\n    if(result){\r\n      emit DPRight(DP, \"DP should be refunded\");\r\n      DP.transfer(dataprice+deposit);\r\n      dtc.transfer(deposit);\r\n      emit refundDone(DP);\r\n      DPs[DP].status = DPStatus.TradingCompleted;\r\n    }\r\n    else{\r\n      emit DPWrong(DP, \"DP is Wrong.\");\r\n\t  DPs[DP].status = DPStatus.DPIsWrong;\r\n      settlepayment(DP);           \r\n    }\r\n  }\r\n  \r\n  function settlepayment(address payable DP) internal{\r\n    require(DPs[DP].status == DPStatus.SuccessfulTrading || DPs[DP].status == DPStatus.DPIsWrong);\r\n    uint x = dataprice/2;\r\n    uint dsincome = deposit + x;\r\n    ds.transfer(dsincome);\r\n    dtc.transfer(x);\r\n    DP.transfer(deposit);\r\n    emit paymentSettled(DP, \"Payment settled\");\r\n    DPs[DP].status = DPStatus.TradingCompleted;\r\n  }    \r\n}",
  "sourcePath": "/workspaces/DTC-SC/contracts/DTSC.sol",
  "compiler": {
    "name": "solc",
    "version": "0.5.16+commit.9c3226ce.Emscripten.clang"
  },
  "schemaVersion": "3.4.16",
  "updatedAt": "2024-11-16T01:22:57.115Z",
  "networkType": "ethereum",
  "devdoc": {
    "methods": {}
  },
  "userdoc": {
    "methods": {}
  }
}