{
  "contractName": "DTSC",
  "abi": [
    {
      "inputs": [
        {
          "internalType": "address payable",
          "name": "_dtc",
          "type": "address"
        },
        {
          "internalType": "address payable",
          "name": "_ds",
          "type": "address"
        },
        {
          "internalType": "address payable",
          "name": "_dp",
          "type": "address"
        }
      ],
      "payable": false,
      "stateMutability": "nonpayable",
      "type": "constructor"
    },
    {
      "anonymous": false,
      "inputs": [
        {
          "indexed": false,
          "internalType": "address",
          "name": "DP",
          "type": "address"
        },
        {
          "indexed": false,
          "internalType": "string",
          "name": "info",
          "type": "string"
        }
      ],
      "name": "DPDepositedandPaid",
      "type": "event"
    },
    {
      "anonymous": false,
      "inputs": [
        {
          "indexed": false,
          "internalType": "address",
          "name": "DP",
          "type": "address"
        },
        {
          "indexed": false,
          "internalType": "string",
          "name": "info",
          "type": "string"
        }
      ],
      "name": "DPRight",
      "type": "event"
    },
    {
      "anonymous": false,
      "inputs": [
        {
          "indexed": false,
          "internalType": "address",
          "name": "DP",
          "type": "address"
        },
        {
          "indexed": false,
          "internalType": "string",
          "name": "info",
          "type": "string"
        }
      ],
      "name": "DPWrong",
      "type": "event"
    },
    {
      "anonymous": false,
      "inputs": [
        {
          "indexed": false,
          "internalType": "string",
          "name": "info",
          "type": "string"
        },
        {
          "indexed": false,
          "internalType": "address",
          "name": "DS",
          "type": "address"
        }
      ],
      "name": "DSDeposited",
      "type": "event"
    },
    {
      "anonymous": false,
      "inputs": [
        {
          "indexed": false,
          "internalType": "address",
          "name": "DP",
          "type": "address"
        },
        {
          "indexed": false,
          "internalType": "string",
          "name": "info",
          "type": "string"
        }
      ],
      "name": "DTCArbitrationThroughDTCSC",
      "type": "event"
    },
    {
      "anonymous": false,
      "inputs": [
        {
          "indexed": false,
          "internalType": "string",
          "name": "info",
          "type": "string"
        },
        {
          "indexed": false,
          "internalType": "address",
          "name": "DP",
          "type": "address"
        }
      ],
      "name": "RefundBasedOnDPRequest",
      "type": "event"
    },
    {
      "anonymous": false,
      "inputs": [
        {
          "indexed": false,
          "internalType": "address",
          "name": "DP",
          "type": "address"
        },
        {
          "indexed": false,
          "internalType": "string",
          "name": "info",
          "type": "string"
        }
      ],
      "name": "paymentSettled",
      "type": "event"
    },
    {
      "anonymous": false,
      "inputs": [
        {
          "indexed": false,
          "internalType": "address",
          "name": "DP",
          "type": "address"
        }
      ],
      "name": "refundDone",
      "type": "event"
    },
    {
      "anonymous": false,
      "inputs": [
        {
          "indexed": false,
          "internalType": "address",
          "name": "DP",
          "type": "address"
        }
      ],
      "name": "successfulTrading",
      "type": "event"
    },
    {
      "anonymous": false,
      "inputs": [
        {
          "indexed": false,
          "internalType": "address",
          "name": "DP",
          "type": "address"
        }
      ],
      "name": "unsuccessfulTrading",
      "type": "event"
    },
    {
      "constant": true,
      "inputs": [
        {
          "internalType": "address",
          "name": "",
          "type": "address"
        }
      ],
      "name": "DPs",
      "outputs": [
        {
          "internalType": "enum DTSC.DPStatus",
          "name": "status",
          "type": "uint8"
        }
      ],
      "payable": false,
      "stateMutability": "view",
      "type": "function"
    },
    {
      "constant": true,
      "inputs": [],
      "name": "dataprice",
      "outputs": [
        {
          "internalType": "uint256",
          "name": "",
          "type": "uint256"
        }
      ],
      "payable": false,
      "stateMutability": "view",
      "type": "function"
    },
    {
      "constant": true,
      "inputs": [],
      "name": "deposit",
      "outputs": [
        {
          "internalType": "uint256",
          "name": "",
          "type": "uint256"
        }
      ],
      "payable": false,
      "stateMutability": "view",
      "type": "function"
    },
    {
      "constant": true,
      "inputs": [],
      "name": "dp",
      "outputs": [
        {
          "internalType": "address payable",
          "name": "",
          "type": "address"
        }
      ],
      "payable": false,
      "stateMutability": "view",
      "type": "function"
    },
    {
      "constant": true,
      "inputs": [],
      "name": "ds",
      "outputs": [
        {
          "internalType": "address payable",
          "name": "",
          "type": "address"
        }
      ],
      "payable": false,
      "stateMutability": "view",
      "type": "function"
    },
    {
      "constant": true,
      "inputs": [],
      "name": "dtc",
      "outputs": [
        {
          "internalType": "address payable",
          "name": "",
          "type": "address"
        }
      ],
      "payable": false,
      "stateMutability": "view",
      "type": "function"
    },
    {
      "constant": true,
      "inputs": [],
      "name": "numberOfDPs",
      "outputs": [
        {
          "internalType": "uint256",
          "name": "",
          "type": "uint256"
        }
      ],
      "payable": false,
      "stateMutability": "view",
      "type": "function"
    },
    {
      "constant": true,
      "inputs": [],
      "name": "numberOfSuccessfulSales",
      "outputs": [
        {
          "internalType": "uint256",
          "name": "",
          "type": "uint256"
        }
      ],
      "payable": false,
      "stateMutability": "view",
      "type": "function"
    },
    {
      "constant": true,
      "inputs": [],
      "name": "status",
      "outputs": [
        {
          "internalType": "enum DTSC.DTSCStatus",
          "name": "",
          "type": "uint8"
        }
      ],
      "payable": false,
      "stateMutability": "view",
      "type": "function"
    },
    {
      "constant": false,
      "inputs": [],
      "name": "RequestSellData",
      "outputs": [],
      "payable": true,
      "stateMutability": "payable",
      "type": "function"
    },
    {
      "constant": false,
      "inputs": [],
      "name": "RequestGetData",
      "outputs": [],
      "payable": true,
      "stateMutability": "payable",
      "type": "function"
    },
    {
      "constant": false,
      "inputs": [],
      "name": "refund",
      "outputs": [],
      "payable": false,
      "stateMutability": "nonpayable",
      "type": "function"
    },
    {
      "constant": false,
      "inputs": [
        {
          "internalType": "bool",
          "name": "result",
          "type": "bool"
        }
      ],
      "name": "ConfirmResult",
      "outputs": [],
      "payable": false,
      "stateMutability": "nonpayable",
      "type": "function"
    },
    {
      "constant": false,
      "inputs": [
        {
          "internalType": "address payable",
          "name": "DP",
          "type": "address"
        },
        {
          "internalType": "bool",
          "name": "result",
          "type": "bool"
        }
      ],
      "name": "SettleDisputeAndPayment",
      "outputs": [],
      "payable": false,
      "stateMutability": "nonpayable",
      "type": "function"
    }
  ],
  "bytecode": "0x608060405234801561001057600080fd5b50604051611aa4380380611aa48339818101604052606081101561003357600080fd5b81019080805190602001909291908051906020019092919080519060200190929190505050826000806101000a81548173ffffffffffffffffffffffffffffffffffffffff021916908373ffffffffffffffffffffffffffffffffffffffff16021790555081600160006101000a81548173ffffffffffffffffffffffffffffffffffffffff021916908373ffffffffffffffffffffffffffffffffffffffff16021790555080600260006101000a81548173ffffffffffffffffffffffffffffffffffffffff021916908373ffffffffffffffffffffffffffffffffffffffff1602179055506000600260146101000a81548160ff0219169083600181111561013957fe5b02179055506729a2241af62c0000600581905550671bc16d674ec80000600681905550600060038190555060006004819055505050506119268061017e6000396000f3fe6080604052600436106100dd5760003560e01c80638a238de51161007f578063b95c7a0611610059578063b95c7a06146102de578063d0e30db01461033b578063da43b95a14610366578063edddf717146103d9576100dd565b80638a238de51461023157806393eb049d1461025c5780639934105e146102b3576100dd565b806330dce62b116100bb57806330dce62b146101af5780634f480abb14610206578063590e1ae3146102105780637638f68014610227576100dd565b80630119cef5146100e2578063200d2ed21461011f578063306f0b7614610158575b600080fd5b3480156100ee57600080fd5b5061011d6004803603602081101561010557600080fd5b81019080803515159060200190929190505050610404565b005b34801561012b57600080fd5b506101346107c7565b6040518082600181111561014457fe5b60ff16815260200191505060405180910390f35b34801561016457600080fd5b5061016d6107da565b604051808273ffffffffffffffffffffffffffffffffffffffff1673ffffffffffffffffffffffffffffffffffffffff16815260200191505060405180910390f35b3480156101bb57600080fd5b506101c46107ff565b604051808273ffffffffffffffffffffffffffffffffffffffff1673ffffffffffffffffffffffffffffffffffffffff16815260200191505060405180910390f35b61020e610825565b005b34801561021c57600080fd5b50610225610a1f565b005b61022f610d12565b005b34801561023d57600080fd5b50610246610fe2565b6040518082815260200191505060405180910390f35b34801561026857600080fd5b50610271610fe8565b604051808273ffffffffffffffffffffffffffffffffffffffff1673ffffffffffffffffffffffffffffffffffffffff16815260200191505060405180910390f35b3480156102bf57600080fd5b506102c861100e565b6040518082815260200191505060405180910390f35b3480156102ea57600080fd5b506103396004803603604081101561030157600080fd5b81019080803573ffffffffffffffffffffffffffffffffffffffff169060200190929190803515159060200190929190505050611014565b005b34801561034757600080fd5b506103506114c7565b6040518082815260200191505060405180910390f35b34801561037257600080fd5b506103b56004803603602081101561038957600080fd5b81019080803573ffffffffffffffffffffffffffffffffffffffff1690602001909291905050506114cd565b604051808260058111156103c557fe5b60ff16815260200191505060405180910390f35b3480156103e557600080fd5b506103ee6114f8565b6040518082815260200191505060405180910390f35b600260009054906101000a900473ffffffffffffffffffffffffffffffffffffffff1673ffffffffffffffffffffffffffffffffffffffff163373ffffffffffffffffffffffffffffffffffffffff16146104c7576040517f08c379a00000000000000000000000000000000000000000000000000000000081526004018080602001828103825260208152602001807f4f6e6c792044502063616e20706572666f726d207468697320616374696f6e2e81525060200191505060405180910390fd5b600060058111156104d457fe5b600760003373ffffffffffffffffffffffffffffffffffffffff1673ffffffffffffffffffffffffffffffffffffffff16815260200190815260200160002060000160009054906101000a900460ff16600581111561052f57fe5b146105a2576040517f08c379a000000000000000000000000000000000000000000000000000000000815260040180806020018281038252600f8152602001807f496e76616c6964207374617475732e000000000000000000000000000000000081525060200191505060405180910390fd5b801561067d577fdbc5ae7d32e2e6861e4a606b095bc49bd956351c7f4db1ca448bb5f4f11447e633604051808273ffffffffffffffffffffffffffffffffffffffff1673ffffffffffffffffffffffffffffffffffffffff16815260200191505060405180910390a16001600760003373ffffffffffffffffffffffffffffffffffffffff1673ffffffffffffffffffffffffffffffffffffffff16815260200190815260200160002060000160006101000a81548160ff0219169083600581111561066a57fe5b0217905550610678336114fe565b6107c4565b7f20699f79cfa85a508683c7dd12178dd1f4b2ea8ca093d37bf508b37b7c994df333604051808273ffffffffffffffffffffffffffffffffffffffff1673ffffffffffffffffffffffffffffffffffffffff16815260200191505060405180910390a16002600760003373ffffffffffffffffffffffffffffffffffffffff1673ffffffffffffffffffffffffffffffffffffffff16815260200190815260200160002060000160006101000a81548160ff0219169083600581111561073f57fe5b02179055507f19d9b9b1e394c4d6630da7c2586adb1c73c0db1581cc67f95fb20a5c7dd9eb0933604051808273ffffffffffffffffffffffffffffffffffffffff1673ffffffffffffffffffffffffffffffffffffffff16815260200180602001828103825260278152602001806118aa602791396040019250505060405180910390a15b50565b600260149054906101000a900460ff1681565b6000809054906101000a900473ffffffffffffffffffffffffffffffffffffffff1681565b600160009054906101000a900473ffffffffffffffffffffffffffffffffffffffff1681565b600160009054906101000a900473ffffffffffffffffffffffffffffffffffffffff1673ffffffffffffffffffffffffffffffffffffffff163373ffffffffffffffffffffffffffffffffffffffff16146108e8576040517f08c379a00000000000000000000000000000000000000000000000000000000081526004018080602001828103825260208152602001807f4f6e6c792044532063616e20706572666f726d207468697320616374696f6e2e81525060200191505060405180910390fd5b600554341461095f576040517f08c379a00000000000000000000000000000000000000000000000000000000081526004018080602001828103825260188152602001807f496e636f7272656374206465706f7369742076616c75652e000000000000000081525060200191505060405180910390fd5b7f8a1c5dc5e32c950fc94e8ff339fe69c495c7eac608df9ac09488fc9fc97954ef600160009054906101000a900473ffffffffffffffffffffffffffffffffffffffff1660405180806020018373ffffffffffffffffffffffffffffffffffffffff1673ffffffffffffffffffffffffffffffffffffffff1681526020018281038252600c8152602001807f53656c6c696e67206461746100000000000000000000000000000000000000008152506020019250505060405180910390a1565b600260009054906101000a900473ffffffffffffffffffffffffffffffffffffffff1673ffffffffffffffffffffffffffffffffffffffff163373ffffffffffffffffffffffffffffffffffffffff1614610ae2576040517f08c379a00000000000000000000000000000000000000000000000000000000081526004018080602001828103825260208152602001807f4f6e6c792044502063616e20706572666f726d207468697320616374696f6e2e81525060200191505060405180910390fd5b60006005811115610aef57fe5b600760003373ffffffffffffffffffffffffffffffffffffffff1673ffffffffffffffffffffffffffffffffffffffff16815260200190815260200160002060000160009054906101000a900460ff166005811115610b4a57fe5b14610bbd576040517f08c379a00000000000000000000000000000000000000000000000000000000081526004018080602001828103825260138152602001807f526566756e64206e6f7420616c6c6f7765642e0000000000000000000000000081525060200191505060405180910390fd5b60006006546005540190503373ffffffffffffffffffffffffffffffffffffffff166108fc829081150290604051600060405180830381858888f19350505050158015610c0e573d6000803e3d6000fd5b506005600760003373ffffffffffffffffffffffffffffffffffffffff1673ffffffffffffffffffffffffffffffffffffffff16815260200190815260200160002060000160006101000a81548160ff02191690836005811115610c6e57fe5b02179055507f5499cf01fb1a6618fbc9ff5cfc678d596d8e7333343eaabf4f37a8987ec2b7313360405180806020018373ffffffffffffffffffffffffffffffffffffffff1673ffffffffffffffffffffffffffffffffffffffff168152602001828103825260148152602001807f445020686173206265656e20726566756e6465640000000000000000000000008152506020019250505060405180910390a150565b600260009054906101000a900473ffffffffffffffffffffffffffffffffffffffff1673ffffffffffffffffffffffffffffffffffffffff163373ffffffffffffffffffffffffffffffffffffffff1614610dd5576040517f08c379a00000000000000000000000000000000000000000000000000000000081526004018080602001828103825260208152602001807f4f6e6c792044502063616e20706572666f726d207468697320616374696f6e2e81525060200191505060405180910390fd5b600554600654013414610e50576040517f08c379a00000000000000000000000000000000000000000000000000000000081526004018080602001828103825260158152602001807f496e636f72726563742076616c75652073656e742e000000000000000000000081525060200191505060405180910390fd5b60006001811115610e5d57fe5b600260149054906101000a900460ff166001811115610e7857fe5b14610eeb576040517f08c379a000000000000000000000000000000000000000000000000000000000815260040180806020018281038252600f8152602001807f496e76616c6964207374617475732e000000000000000000000000000000000081525060200191505060405180910390fd5b6000600760003373ffffffffffffffffffffffffffffffffffffffff1673ffffffffffffffffffffffffffffffffffffffff16815260200190815260200160002060000160006101000a81548160ff02191690836005811115610f4a57fe5b02179055507f4ab5a178e88ba91e31ccc9998f030dccb276a2717f7f48d8a9a42de002cc692f33604051808273ffffffffffffffffffffffffffffffffffffffff1673ffffffffffffffffffffffffffffffffffffffff1681526020018060200182810382526027815260200180611883602791396040019250505060405180910390a1600360008154809291906001019190505550565b60045481565b600260009054906101000a900473ffffffffffffffffffffffffffffffffffffffff1681565b60065481565b6000809054906101000a900473ffffffffffffffffffffffffffffffffffffffff1673ffffffffffffffffffffffffffffffffffffffff163373ffffffffffffffffffffffffffffffffffffffff16146110b9576040517f08c379a00000000000000000000000000000000000000000000000000000000081526004018080602001828103825260218152602001806118d16021913960400191505060405180910390fd5b600260058111156110c657fe5b600760008473ffffffffffffffffffffffffffffffffffffffff1673ffffffffffffffffffffffffffffffffffffffff16815260200190815260200160002060000160009054906101000a900460ff16600581111561112157fe5b14611194576040517f08c379a000000000000000000000000000000000000000000000000000000000815260040180806020018281038252600f8152602001807f496e76616c6964207374617475732e000000000000000000000000000000000081525060200191505060405180910390fd5b80156113b9577f8dafcc567dd3ba3d131227036cc21ed1dce94b43d9aee6b2de1eabe8fdfd125782604051808273ffffffffffffffffffffffffffffffffffffffff1673ffffffffffffffffffffffffffffffffffffffff16815260200180602001828103825260158152602001807f44502073686f756c6420626520726566756e64656400000000000000000000008152506020019250505060405180910390a18173ffffffffffffffffffffffffffffffffffffffff166108fc600554600654019081150290604051600060405180830381858888f19350505050158015611282573d6000803e3d6000fd5b506000809054906101000a900473ffffffffffffffffffffffffffffffffffffffff1673ffffffffffffffffffffffffffffffffffffffff166108fc6005549081150290604051600060405180830381858888f193505050501580156112ec573d6000803e3d6000fd5b507f6c91cab5674b0eeec8f139f81287e7dcc1632a9ff7c8a0c9469507825ea93cfa82604051808273ffffffffffffffffffffffffffffffffffffffff1673ffffffffffffffffffffffffffffffffffffffff16815260200191505060405180910390a16004600760008473ffffffffffffffffffffffffffffffffffffffff1673ffffffffffffffffffffffffffffffffffffffff16815260200190815260200160002060000160006101000a81548160ff021916908360058111156113af57fe5b02179055506114c3565b7fec6c63d53120390e4ddc86b787388bbd84673bdcaeb0279cabf97051f4db86b482604051808273ffffffffffffffffffffffffffffffffffffffff1673ffffffffffffffffffffffffffffffffffffffff168152602001806020018281038252600c8152602001807f44502069732057726f6e672e00000000000000000000000000000000000000008152506020019250505060405180910390a16003600760008473ffffffffffffffffffffffffffffffffffffffff1673ffffffffffffffffffffffffffffffffffffffff16815260200190815260200160002060000160006101000a81548160ff021916908360058111156114b457fe5b02179055506114c2826114fe565b5b5050565b60055481565b60076020528060005260406000206000915090508060000160009054906101000a900460ff16905081565b60035481565b6001600581111561150b57fe5b600760008373ffffffffffffffffffffffffffffffffffffffff1673ffffffffffffffffffffffffffffffffffffffff16815260200190815260200160002060000160009054906101000a900460ff16600581111561156657fe5b14806115d757506003600581111561157a57fe5b600760008373ffffffffffffffffffffffffffffffffffffffff1673ffffffffffffffffffffffffffffffffffffffff16815260200190815260200160002060000160009054906101000a900460ff1660058111156115d557fe5b145b611649576040517f08c379a000000000000000000000000000000000000000000000000000000000815260040180806020018281038252600f8152602001807f496e76616c6964207374617475732e000000000000000000000000000000000081525060200191505060405180910390fd5b600060026006548161165757fe5b049050600081600554019050600160009054906101000a900473ffffffffffffffffffffffffffffffffffffffff1673ffffffffffffffffffffffffffffffffffffffff166108fc829081150290604051600060405180830381858888f193505050501580156116cb573d6000803e3d6000fd5b506000809054906101000a900473ffffffffffffffffffffffffffffffffffffffff1673ffffffffffffffffffffffffffffffffffffffff166108fc839081150290604051600060405180830381858888f19350505050158015611733573d6000803e3d6000fd5b508273ffffffffffffffffffffffffffffffffffffffff166108fc6005549081150290604051600060405180830381858888f1935050505015801561177c573d6000803e3d6000fd5b507f158d68a439246c67485bf94343db5ad9413336d0e6b273ea66a0bbc206c5c6c183604051808273ffffffffffffffffffffffffffffffffffffffff1673ffffffffffffffffffffffffffffffffffffffff168152602001806020018281038252600f8152602001807f5061796d656e7420736574746c656400000000000000000000000000000000008152506020019250505060405180910390a16004600760008573ffffffffffffffffffffffffffffffffffffffff1673ffffffffffffffffffffffffffffffffffffffff16815260200190815260200160002060000160006101000a81548160ff0219169083600581111561187857fe5b021790555050505056fe4450206465706f736974656420616e64207061696420666f722064617461207265736f7572636544544320697320696e766f6c76656420696e2064697370757465206172626974726174696f6e2e4f6e6c79204454432063616e20706572666f726d207468697320616374696f6e2ea265627a7a723158204f3ad728bd0fbce90c4e1fde5620cfc86f4c8336e16bd6b722bd8e55a91e5a6964736f6c63430005100032",
  "source": "pragma solidity ^0.5.16;\r\n\r\ncontract DTSC {\r\n  address payable public dtc;\r\n  address payable public ds;\r\n  address payable public dp;\r\n  enum DTSCStatus { WaitingforDP, Aborted }\r\n  DTSCStatus public status;\r\n  enum DPStatus { DPDeposited, SuccessfulTrading, Unsatisfied, DPIsWrong, TradingCompleted, Refunded }\r\n  uint public numberOfDPs;\r\n  uint public numberOfSuccessfulSales;\r\n  uint public deposit;\r\n  uint public dataprice;\r\n\r\n  struct Purchaser {\r\n    DPStatus status;\r\n  }\r\n\r\n  mapping(address => Purchaser) public DPs;\r\n\r\n  modifier DPCost() {\r\n    require(msg.value == dataprice + deposit, \"Incorrect value sent.\");\r\n    _;\r\n  }\r\n\r\n  modifier OnlyDTC() {\r\n    require(msg.sender == dtc, \"Only DTC can perform this action.\");\r\n    _;\r\n  }\r\n\r\n  modifier OnlyDS() {\r\n    require(msg.sender == ds, \"Only DS can perform this action.\");\r\n    _;\r\n  }\r\n\r\n  modifier OnlyDP() {\r\n    require(msg.sender == dp, \"Only DP can perform this action.\");\r\n    _;\r\n  }\r\n\r\n  modifier DSCost() {\r\n    require(msg.value == deposit, \"Incorrect deposit value.\");\r\n    _;\r\n  }\r\n\r\n  // Novo construtor para configurar dinamicamente os endereços\r\n  constructor(\r\n    address payable _dtc,\r\n    address payable _ds,\r\n    address payable _dp\r\n  ) public {\r\n    dtc = _dtc;\r\n    ds = _ds;\r\n    dp = _dp;\r\n    status = DTSCStatus.WaitingforDP;\r\n    deposit = 3 ether;\r\n    dataprice = 2 ether;\r\n    numberOfDPs = 0;\r\n    numberOfSuccessfulSales = 0;\r\n  }\r\n\r\n  event DSDeposited(string info, address DS);\r\n  event DPDepositedandPaid(address DP, string info);\r\n  event successfulTrading(address DP);\r\n  event unsuccessfulTrading(address DP);\r\n  event DTCArbitrationThroughDTCSC(address DP, string info);\r\n  event DPRight(address DP, string info);\r\n  event DPWrong(address DP, string info);\r\n  event refundDone(address DP);\r\n  event paymentSettled(address DP, string info);\r\n  event RefundBasedOnDPRequest(string info, address DP);\r\n\r\n  function RequestSellData() OnlyDS DSCost public payable {\r\n    emit DSDeposited(\"Selling data\", ds);\r\n  }\r\n\r\n  function RequestGetData() OnlyDP DPCost public payable {\r\n    require(status == DTSCStatus.WaitingforDP, \"Invalid status.\");\r\n    DPs[msg.sender].status = DPStatus.DPDeposited;\r\n    emit DPDepositedandPaid(msg.sender, \"DP deposited and paid for data resource\");\r\n    numberOfDPs++;\r\n  }\r\n\r\n  function refund() OnlyDP public {\r\n    require(DPs[msg.sender].status == DPStatus.DPDeposited, \"Refund not allowed.\");\r\n    uint x = deposit + dataprice;\r\n    msg.sender.transfer(x);\r\n    DPs[msg.sender].status = DPStatus.Refunded;\r\n    emit RefundBasedOnDPRequest(\"DP has been refunded\", msg.sender);\r\n  }\r\n\r\n  function ConfirmResult(bool result) OnlyDP public {\r\n    require(DPs[msg.sender].status == DPStatus.DPDeposited, \"Invalid status.\");\r\n    if (result) {\r\n      emit successfulTrading(msg.sender);\r\n      DPs[msg.sender].status = DPStatus.SuccessfulTrading;\r\n      settlepayment(msg.sender);\r\n    } else {\r\n      emit unsuccessfulTrading(msg.sender);\r\n      DPs[msg.sender].status = DPStatus.Unsatisfied;\r\n      emit DTCArbitrationThroughDTCSC(msg.sender, \"DTC is involved in dispute arbitration.\");\r\n    }\r\n  }\r\n\r\n  function SettleDisputeAndPayment(address payable DP, bool result) OnlyDTC public {\r\n    require(DPs[DP].status == DPStatus.Unsatisfied, \"Invalid status.\");\r\n    if (result) {\r\n      emit DPRight(DP, \"DP should be refunded\");\r\n      DP.transfer(dataprice + deposit);\r\n      dtc.transfer(deposit);\r\n      emit refundDone(DP);\r\n      DPs[DP].status = DPStatus.TradingCompleted;\r\n    } else {\r\n      emit DPWrong(DP, \"DP is Wrong.\");\r\n      DPs[DP].status = DPStatus.DPIsWrong;\r\n      settlepayment(DP);\r\n    }\r\n  }\r\n\r\n  function settlepayment(address payable DP) internal {\r\n    require(\r\n      DPs[DP].status == DPStatus.SuccessfulTrading || DPs[DP].status == DPStatus.DPIsWrong,\r\n      \"Invalid status.\"\r\n    );\r\n    uint x = dataprice / 2;\r\n    uint dsincome = deposit + x;\r\n    ds.transfer(dsincome);\r\n    dtc.transfer(x);\r\n    DP.transfer(deposit);\r\n    emit paymentSettled(DP, \"Payment settled\");\r\n    DPs[DP].status = DPStatus.TradingCompleted;\r\n  }\r\n}\r\n",
  "sourcePath": "/workspaces/DTC-SC/contracts/DTSC.sol",
  "compiler": {
    "name": "solc",
    "version": "0.5.16+commit.9c3226ce.Emscripten.clang"
  },
  "schemaVersion": "3.4.16",
  "updatedAt": "2024-11-16T15:23:28.123Z",
  "networkType": "ethereum",
  "devdoc": {
    "methods": {}
  },
  "userdoc": {
    "methods": {}
  }
}